{
  "contracts/SettlX.sol": {
    "SettlX": {
      "abi": [
        {
          "inputs": [
            {
              "internalType": "address",
              "name": "tokenAddress",
              "type": "address"
            }
          ],
          "stateMutability": "nonpayable",
          "type": "constructor"
        },
        {
          "inputs": [],
          "name": "ReentrancyGuardReentrantCall",
          "type": "error"
        },
        {
          "inputs": [
            {
              "internalType": "address",
              "name": "token",
              "type": "address"
            }
          ],
          "name": "SafeERC20FailedOperation",
          "type": "error"
        },
        {
          "anonymous": false,
          "inputs": [
            {
              "indexed": true,
              "internalType": "address",
              "name": "merchant",
              "type": "address"
            },
            {
              "indexed": false,
              "internalType": "string",
              "name": "bankName",
              "type": "string"
            },
            {
              "indexed": false,
              "internalType": "string",
              "name": "accountName",
              "type": "string"
            },
            {
              "indexed": false,
              "internalType": "string",
              "name": "accountNumber",
              "type": "string"
            }
          ],
          "name": "MerchantRegistered",
          "type": "event"
        },
        {
          "anonymous": false,
          "inputs": [
            {
              "indexed": true,
              "internalType": "uint256",
              "name": "id",
              "type": "uint256"
            },
            {
              "indexed": false,
              "internalType": "uint256",
              "name": "lockedRate",
              "type": "uint256"
            }
          ],
          "name": "PaymentAccepted",
          "type": "event"
        },
        {
          "anonymous": false,
          "inputs": [
            {
              "indexed": true,
              "internalType": "uint256",
              "name": "id",
              "type": "uint256"
            },
            {
              "indexed": true,
              "internalType": "address",
              "name": "payer",
              "type": "address"
            },
            {
              "indexed": true,
              "internalType": "address",
              "name": "merchant",
              "type": "address"
            },
            {
              "indexed": false,
              "internalType": "uint256",
              "name": "amount",
              "type": "uint256"
            },
            {
              "indexed": false,
              "internalType": "string",
              "name": "rfce",
              "type": "string"
            }
          ],
          "name": "PaymentCreated",
          "type": "event"
        },
        {
          "anonymous": false,
          "inputs": [
            {
              "indexed": true,
              "internalType": "uint256",
              "name": "id",
              "type": "uint256"
            }
          ],
          "name": "PaymentMarkedAsPaid",
          "type": "event"
        },
        {
          "anonymous": false,
          "inputs": [
            {
              "indexed": true,
              "internalType": "uint256",
              "name": "id",
              "type": "uint256"
            }
          ],
          "name": "PaymentRejected",
          "type": "event"
        },
        {
          "inputs": [
            {
              "internalType": "uint256",
              "name": "paymentId",
              "type": "uint256"
            },
            {
              "internalType": "uint256",
              "name": "rate",
              "type": "uint256"
            }
          ],
          "name": "acceptPaymentWithRate",
          "outputs": [],
          "stateMutability": "nonpayable",
          "type": "function"
        },
        {
          "inputs": [],
          "name": "admin",
          "outputs": [
            {
              "internalType": "address",
              "name": "",
              "type": "address"
            }
          ],
          "stateMutability": "view",
          "type": "function"
        },
        {
          "inputs": [],
          "name": "getAllPayments",
          "outputs": [
            {
              "components": [
                {
                  "internalType": "uint256",
                  "name": "id",
                  "type": "uint256"
                },
                {
                  "internalType": "address",
                  "name": "payer",
                  "type": "address"
                },
                {
                  "internalType": "address",
                  "name": "merchant",
                  "type": "address"
                },
                {
                  "internalType": "uint256",
                  "name": "amount",
                  "type": "uint256"
                },
                {
                  "internalType": "uint256",
                  "name": "timestamp",
                  "type": "uint256"
                },
                {
                  "internalType": "string",
                  "name": "rfce",
                  "type": "string"
                },
                {
                  "internalType": "enum SettlX.Status",
                  "name": "status",
                  "type": "uint8"
                },
                {
                  "internalType": "uint256",
                  "name": "lockedRate",
                  "type": "uint256"
                },
                {
                  "internalType": "uint256",
                  "name": "rateLockTimestamp",
                  "type": "uint256"
                }
              ],
              "internalType": "struct SettlX.Payment[]",
              "name": "",
              "type": "tuple[]"
            },
            {
              "components": [
                {
                  "internalType": "string",
                  "name": "bankName",
                  "type": "string"
                },
                {
                  "internalType": "string",
                  "name": "accountName",
                  "type": "string"
                },
                {
                  "internalType": "string",
                  "name": "accountNumber",
                  "type": "string"
                },
                {
                  "internalType": "bool",
                  "name": "isRegistered",
                  "type": "bool"
                }
              ],
              "internalType": "struct SettlX.MerchantInfo[]",
              "name": "",
              "type": "tuple[]"
            }
          ],
          "stateMutability": "view",
          "type": "function"
        },
        {
          "inputs": [
            {
              "internalType": "address",
              "name": "merchant",
              "type": "address"
            }
          ],
          "name": "getMerchantBankDetails",
          "outputs": [
            {
              "internalType": "string",
              "name": "bankName",
              "type": "string"
            },
            {
              "internalType": "string",
              "name": "accountName",
              "type": "string"
            },
            {
              "internalType": "string",
              "name": "accountNumber",
              "type": "string"
            }
          ],
          "stateMutability": "view",
          "type": "function"
        },
        {
          "inputs": [
            {
              "internalType": "address",
              "name": "merchant",
              "type": "address"
            }
          ],
          "name": "getMerchantPaymentIds",
          "outputs": [
            {
              "internalType": "uint256[]",
              "name": "",
              "type": "uint256[]"
            }
          ],
          "stateMutability": "view",
          "type": "function"
        },
        {
          "inputs": [
            {
              "internalType": "address",
              "name": "payer",
              "type": "address"
            }
          ],
          "name": "getPayerPaymentIds",
          "outputs": [
            {
              "internalType": "uint256[]",
              "name": "",
              "type": "uint256[]"
            }
          ],
          "stateMutability": "view",
          "type": "function"
        },
        {
          "inputs": [
            {
              "internalType": "uint256",
              "name": "paymentId",
              "type": "uint256"
            }
          ],
          "name": "getPayment",
          "outputs": [
            {
              "internalType": "uint256",
              "name": "id",
              "type": "uint256"
            },
            {
              "internalType": "address",
              "name": "payer",
              "type": "address"
            },
            {
              "internalType": "address",
              "name": "merchant",
              "type": "address"
            },
            {
              "internalType": "uint256",
              "name": "amount",
              "type": "uint256"
            },
            {
              "internalType": "uint256",
              "name": "timestamp",
              "type": "uint256"
            },
            {
              "internalType": "string",
              "name": "rfce",
              "type": "string"
            },
            {
              "internalType": "enum SettlX.Status",
              "name": "status",
              "type": "uint8"
            }
          ],
          "stateMutability": "view",
          "type": "function"
        },
        {
          "inputs": [
            {
              "internalType": "uint256",
              "name": "paymentId",
              "type": "uint256"
            }
          ],
          "name": "markAsPaid",
          "outputs": [],
          "stateMutability": "nonpayable",
          "type": "function"
        },
        {
          "inputs": [
            {
              "internalType": "address",
              "name": "",
              "type": "address"
            }
          ],
          "name": "merchants",
          "outputs": [
            {
              "internalType": "string",
              "name": "bankName",
              "type": "string"
            },
            {
              "internalType": "string",
              "name": "accountName",
              "type": "string"
            },
            {
              "internalType": "string",
              "name": "accountNumber",
              "type": "string"
            },
            {
              "internalType": "bool",
              "name": "isRegistered",
              "type": "bool"
            }
          ],
          "stateMutability": "view",
          "type": "function"
        },
        {
          "inputs": [
            {
              "internalType": "address",
              "name": "merchant",
              "type": "address"
            },
            {
              "internalType": "uint256",
              "name": "amount",
              "type": "uint256"
            },
            {
              "internalType": "string",
              "name": "rfce",
              "type": "string"
            }
          ],
          "name": "payMerchant",
          "outputs": [],
          "stateMutability": "nonpayable",
          "type": "function"
        },
        {
          "inputs": [
            {
              "internalType": "uint256",
              "name": "",
              "type": "uint256"
            }
          ],
          "name": "payments",
          "outputs": [
            {
              "internalType": "uint256",
              "name": "id",
              "type": "uint256"
            },
            {
              "internalType": "address",
              "name": "payer",
              "type": "address"
            },
            {
              "internalType": "address",
              "name": "merchant",
              "type": "address"
            },
            {
              "internalType": "uint256",
              "name": "amount",
              "type": "uint256"
            },
            {
              "internalType": "uint256",
              "name": "timestamp",
              "type": "uint256"
            },
            {
              "internalType": "string",
              "name": "rfce",
              "type": "string"
            },
            {
              "internalType": "enum SettlX.Status",
              "name": "status",
              "type": "uint8"
            },
            {
              "internalType": "uint256",
              "name": "lockedRate",
              "type": "uint256"
            },
            {
              "internalType": "uint256",
              "name": "rateLockTimestamp",
              "type": "uint256"
            }
          ],
          "stateMutability": "view",
          "type": "function"
        },
        {
          "inputs": [
            {
              "internalType": "string",
              "name": "bankName",
              "type": "string"
            },
            {
              "internalType": "string",
              "name": "accountName",
              "type": "string"
            },
            {
              "internalType": "string",
              "name": "accountNumber",
              "type": "string"
            }
          ],
          "name": "registerMerchantBankDetails",
          "outputs": [],
          "stateMutability": "nonpayable",
          "type": "function"
        },
        {
          "inputs": [
            {
              "internalType": "uint256",
              "name": "paymentId",
              "type": "uint256"
            }
          ],
          "name": "rejectPayment",
          "outputs": [],
          "stateMutability": "nonpayable",
          "type": "function"
        },
        {
          "inputs": [],
          "name": "stableToken",
          "outputs": [
            {
              "internalType": "contract IERC20",
              "name": "",
              "type": "address"
            }
          ],
          "stateMutability": "view",
          "type": "function"
        }
      ],
      "evm": {
        "bytecode": {
          "linkReferences": {},
          "object": "60a0346100d757601f611a4638819003918201601f19168301916001600160401b038311848410176100dc578084926020946040528339810103126100d757516001600160a01b038116908190036100d75760016000556001805580156100a257608052600280546001600160a01b0319163317905560405161195390816100f3823960805181818161064401528181610ce101528181610da501526111370152f35b60405162461bcd60e51b815260206004820152600d60248201526c24b73b30b634b2103a37b5b2b760991b6044820152606490fd5b600080fd5b634e487b7160e01b600052604160045260246000fdfe6080604052600436101561001257600080fd5b60003560e01c80633280a836146114585780636d6a5c5c146113cd5780637021cafe146112b75780637508cf121461124057806387d81789146111875780638d920b02146110b2578063a647d1d314610d10578063a9d75b2b14610ccb578063c87ddf6b14610c44578063d3a0e907146106aa578063e5b185bb1461058b578063ee14e939146104eb578063f851a440146104c25763f8defa3c146100b657600080fd5b346104bd5760003660031901126104bd57600154600019810190811161041d576100df8161182e565b906100ed6040519283611603565b808252601f196100fc8261182e565b0160005b8181106104665750506101128161182e565b906101206040519283611603565b808252601f1961012f8261182e565b0160005b81811061043357505060015b818111156102c1578284604051918291604083016040845281518091526060840190602060608260051b8701019301916000905b82821061021e57505050508281036020840152815180825260208201916020808360051b8301019401926000915b8383106101ae5786860387f35b919395509193602080600192601f198582030186528851906060806102046101f26101e286516080875260808701906114f4565b87870151868203898801526114f4565b604086015185820360408701526114f4565b9301511515910152970193019301909286959492936101a1565b91936001919395965060208091605f198a820301855287519081518152848060a01b03838301511683820152848060a01b03604083015116604082015260608201516060820152608082015160808201526101008061028e60a085015161012060a08601526101208501906114f4565b936102a160c082015160c0860190611535565b60e081015160e08501520151910152960192019201869594939192610173565b80600052600360205260406000209060001981019181831161041d57604051926102ea846115cc565b8154845260018201546001600160a01b0390811660208601526002830154166040850152600382015460608501526004820154608085015261032e60058301611624565b60a085015260ff6006830154169360048510156104075760086103fc936104029660c0840152600781015460e084015201546101008201526103708289611845565b5261037b8188611845565b5082600052600360205260018060a01b03600260406000200154166000526005602052604060002060ff6003604051926103b4846115e8565b6103bd81611624565b84526103cb60018201611624565b60208501526103dc60028201611624565b6040850152015416151560608201526103f58288611845565b5285611845565b50611774565b61013f565b634e487b7160e01b600052602160045260246000fd5b634e487b7160e01b600052601160045260246000fd5b602090604051610442816115e8565b60608152606083820152606060408201526000606082015282828701015201610133565b602090604051610475816115cc565b60008152600083820152600060408201526000606082015260006080820152606060a0820152600060c0820152600060e0820152600061010082015282828701015201610100565b600080fd5b346104bd5760003660031901126104bd576002546040516001600160a01b039091168152602090f35b346104bd5760203660031901126104bd576001600160a01b0361050c611542565b166000526005602052610563604060002061052681611624565b9061057f61053660018301611624565b9161057160ff600361054a60028501611624565b93015416936040519687966080885260808801906114f4565b9086820360208801526114f4565b9084820360408601526114f4565b90151560608301520390f35b346104bd5760403660031901126104bd576004356024356105aa611859565b81600052600360205260406000206105cf60018060a01b0360028301541633146116f5565b600681019160ff8354166004811015610407576105ec9015611734565b8015610676576106686020927f39f916cfa4e8a7f5d298df5a811d42bbbdfa00e81fdc65d937067ee18bfa273294600160ff19825416179055826007820155426008820155600360018060a01b0360025416910154907f000000000000000000000000000000000000000000000000000000000000000061187b565b604051908152a26001600055005b60405162461bcd60e51b815260206004820152600c60248201526b496e76616c6964207261746560a01b6044820152606490fd5b346104bd5760603660031901126104bd576004356001600160401b0381116104bd576106da9036906004016116c8565b906024356001600160401b0381116104bd576106fa9036906004016116c8565b9190926044356001600160401b0381116104bd5761071c9036906004016116c8565b90938215610c0a578015610bcd578115610b885760405161073c816115e8565b610747368587611783565b8152610754368389611783565b9060208101918252610767368589611783565b60408201908152606082019260018452336000526005602052604060002092518051906001600160401b0382116109ec5781906107a48654611592565b601f8111610b35575b50602090601f8311600114610ad057600092610ac5575b50508160011b916000199060031b1c19161783555b51805160018401916001600160401b0382116109ec5781906107fb8454611592565b601f8111610a72575b50602090601f8311600114610a0d57600092610a02575b50508160011b916000199060031b1c19161790555b51805160028301916001600160401b0382116109ec576108508354611592565b601f81116109a4575b50602090601f831160011461090e57936108fe979693836108ee97946003947fb51f26c130a97c91544fc6ea433ce79c9a39499ca08ab1770865db7abf52fe7c9e9f98600092610903575b50508160011b9160001990861b1c19161790555b019051151560ff801983541691161790556108e060405197889760608952606089019161180d565b91868303602088015261180d565b908382036040850152339661180d565b0390a2005b015190508f806108a4565b90601f1983169184600052816000209260005b81811061098c5750846003947fb51f26c130a97c91544fc6ea433ce79c9a39499ca08ab1770865db7abf52fe7c9e9f98946108fe9c9b98946108ee9b9860019510610974575b505050811b0190556108b8565b015160001983881b60f8161c191690558f8080610967565b92936020600181928786015181550195019301610921565b836000526020600020601f840160051c810191602085106109e2575b601f0160051c01905b8181106109d65750610859565b600081556001016109c9565b90915081906109c0565b634e487b7160e01b600052604160045260246000fd5b015190508c8061081b565b60008581528281209350601f198516905b818110610a5a5750908460019594939210610a41575b505050811b019055610830565b015160001960f88460031b161c191690558c8080610a34565b92936020600181928786015181550195019301610a1e565b909150836000526020600020601f840160051c81019160208510610abb575b90601f859493920160051c01905b818110610aac5750610804565b60008155849350600101610a9f565b9091508190610a91565b015190508c806107c4565b60008781528281209350601f198516905b818110610b1d5750908460019594939210610b04575b505050811b0183556107d9565b015160001960f88460031b161c191690558c8080610af7565b92936020600181928786015181550195019301610ae1565b909150856000526020600020601f840160051c81019160208510610b7e575b90601f859493920160051c01905b818110610b6f57506107ad565b60008155849350600101610b62565b9091508190610b54565b60405162461bcd60e51b815260206004820152601760248201527f4163636f756e74206e756d6265722072657175697265640000000000000000006044820152606490fd5b60405162461bcd60e51b81526020600482015260156024820152741058d8dbdd5b9d081b985b59481c995c5d5a5c9959605a1b6044820152606490fd5b60405162461bcd60e51b815260206004820152601260248201527110985b9ac81b985b59481c995c5d5a5c995960721b6044820152606490fd5b346104bd5760203660031901126104bd576001600160a01b03610c65611542565b166000526006602052604060002060405190816020825491828152019160005260206000209060005b818110610cb557610cb185610ca581870382611603565b60405191829182611558565b0390f35b8254845260209093019260019283019201610c8e565b346104bd5760003660031901126104bd576040517f00000000000000000000000000000000000000000000000000000000000000006001600160a01b03168152602090f35b346104bd5760603660031901126104bd57610d29611542565b602435906044356001600160401b0381116104bd57610d4c9036906004016116c8565b9091610d56611859565b6001600160a01b031691821561107a57831561104457600093610dc96040516323b872dd60e01b602082015233602482015230604482015282606482015260648152610da3608482611603565b7f00000000000000000000000000000000000000000000000000000000000000006118b6565b60015491610dd683611774565b60015560405191610de6836115cc565b8383526020830192338452604081018781526060820183815260808301428152610e11368a88611783565b60a0850190815260c085018c815260e086018d815261010087019d8e5260008b81526003602081905260409091209751885599516001880180546001600160a01b03199081166001600160a01b039384161790915596516002890180549098169116179095559251978501979097555160048401559451805191959160058401916001600160401b0382116109ec578190610eac8454611592565b601f8111610ff1575b50602090601f8311600114610f8c57600092610f81575b50508160011b916000199060031b1c19161790555b6006820190519860048a1015610407577ffb8577c305f1cbe25cf638bcfb752fa10897cf75c38e6f3533e4272159dca6ad9560089260009b60ff80198354169116179055516007840155519101558587526004602052610f4484604089206117c9565b3387526006602052610f5984604089206117c9565b610f776040519283928352604060208401523396604084019161180d565b0390a46001815580f35b015190508c80610ecc565b60008581528281209350601f198516905b818110610fd95750908460019594939210610fc0575b505050811b019055610ee1565b015160001960f88460031b161c191690558c8080610fb3565b92936020600181928786015181550195019301610f9d565b909150836000526020600020601f840160051c8101916020851061103a575b90601f859493920160051c01905b81811061102b5750610eb5565b6000815584935060010161101e565b9091508190611010565b60405162461bcd60e51b815260206004820152600e60248201526d125b9d985b1a5908185b5bdd5b9d60921b6044820152606490fd5b60405162461bcd60e51b815260206004820152601060248201526f125b9d985b1a59081b595c98da185b9d60821b6044820152606490fd5b346104bd5760203660031901126104bd576004356110ce611859565b80600052600360205260406000206110f360018060a01b0360028301541633146116f5565b600681019060ff8254169160048310156104075761111461115b9315611734565b805460ff19166002179055600181015460039190910154906001600160a01b03167f000000000000000000000000000000000000000000000000000000000000000061187b565b7ff5ec7914f551b0e22d281faf431be56bd547434a136fa460d18a3b21664f46fb600080a26001600055005b346104bd5760203660031901126104bd5760043560005260036020526040600020805460018060a01b036001830154169160018060a01b0360028201541660038201549161123161122660048301546111e260058501611624565b9060ff6006860154169660086007870154960154966040519a8b9a8b5260208b015260408a01526060890152608088015261012060a08801526101208701906114f4565b9360c0860190611535565b60e08401526101008301520390f35b346104bd5760203660031901126104bd576001600160a01b03611261611542565b166000526004602052604060002060405190816020825491828152019160005260206000209060005b8181106112a157610cb185610ca581870382611603565b825484526020909301926001928301920161128a565b346104bd5760203660031901126104bd57600254600435906001600160a01b03163303611388576112e6611859565b806000526003602052600660406000200160ff81541660048110156104075760010361134357805460ff191660031790557fc3f09464992229143225cb1bf5d1449fe1965eb0b5db593b8021f83843af73aa600080a26001600055005b60405162461bcd60e51b815260206004820152601e60248201527f5061796d656e74206d75737420626520616363657074656420666972737400006044820152606490fd5b60405162461bcd60e51b815260206004820152601860248201527f4f6e6c792061646d696e2063616e2063616c6c207468697300000000000000006044820152606490fd5b346104bd5760203660031901126104bd576001600160a01b036113ee611542565b16600052600560205261143c6040600020610cb161140b82611624565b9161144a611427600261142060018501611624565b9301611624565b916040519586956060875260608701906114f4565b9085820360208701526114f4565b9083820360408501526114f4565b346104bd5760203660031901126104bd5760043560005260036020526040600020805460018060a01b0360018301541691610cb16114e960018060a01b0360028401541660038401546004850154906114bb600560ff6006890154169701611624565b926040519889988952602089015260408801526060870152608086015260e060a086015260e08501906114f4565b9160c0840190611535565b919082519283825260005b848110611520575050826000602080949584010152601f8019910116010190565b806020809284010151828286010152016114ff565b9060048210156104075752565b600435906001600160a01b03821682036104bd57565b602060408183019282815284518094520192019060005b81811061157c5750505090565b825184526020938401939092019160010161156f565b90600182811c921680156115c2575b60208310146115ac57565b634e487b7160e01b600052602260045260246000fd5b91607f16916115a1565b61012081019081106001600160401b038211176109ec57604052565b608081019081106001600160401b038211176109ec57604052565b90601f801991011681019081106001600160401b038211176109ec57604052565b906040519182600082549261163884611592565b80845293600181169081156116a6575060011461165f575b5061165d92500383611603565b565b90506000929192526020600020906000915b81831061168a57505090602061165d9282010138611650565b6020919350806001915483858901015201910190918492611671565b90506020925061165d94915060ff191682840152151560051b82010138611650565b9181601f840112156104bd578235916001600160401b0383116104bd57602083818601950101116104bd57565b156116fc57565b60405162461bcd60e51b815260206004820152601060248201526f139bdd081e5bdd5c881c185e5b595b9d60821b6044820152606490fd5b1561173b57565b60405162461bcd60e51b8152602060048201526011602482015270105b1c9958591e481c1c9bd8d95cdcd959607a1b6044820152606490fd5b600019811461041d5760010190565b9291926001600160401b0382116109ec57604051916117ac601f8201601f191660200184611603565b8294818452818301116104bd578281602093846000960137010152565b805490680100000000000000008210156109ec57600182018082558210156117f75760005260206000200155565b634e487b7160e01b600052603260045260246000fd5b908060209392818452848401376000828201840152601f01601f1916010190565b6001600160401b0381116109ec5760051b60200190565b80518210156117f75760209160051b010190565b60026000541461186a576002600055565b633ee5aeb560e01b60005260046000fd5b60405163a9059cbb60e01b60208201526001600160a01b03909216602483015260448083019390935291815261165d916118b6606483611603565b906000602091828151910182855af115611911576000513d61190857506001600160a01b0381163b155b6118e75750565b635274afe760e01b60009081526001600160a01b0391909116600452602490fd5b600114156118e0565b6040513d6000823e3d90fdfea2646970667358221220832ee6f55dc2b21d584e1757bb8df844c7c44ef1cf4080ba0cdd17b8f652999b64736f6c634300081c0033",
          "opcodes": "PUSH1 0xA0 CALLVALUE PUSH2 0xD7 JUMPI PUSH1 0x1F PUSH2 0x1A46 CODESIZE DUP2 SWAP1 SUB SWAP2 DUP3 ADD PUSH1 0x1F NOT AND DUP4 ADD SWAP2 PUSH1 0x1 PUSH1 0x1 PUSH1 0x40 SHL SUB DUP4 GT DUP5 DUP5 LT OR PUSH2 0xDC JUMPI DUP1 DUP5 SWAP3 PUSH1 0x20 SWAP5 PUSH1 0x40 MSTORE DUP4 CODECOPY DUP2 ADD SUB SLT PUSH2 0xD7 JUMPI MLOAD PUSH1 0x1 PUSH1 0x1 PUSH1 0xA0 SHL SUB DUP2 AND SWAP1 DUP2 SWAP1 SUB PUSH2 0xD7 JUMPI PUSH1 0x1 PUSH1 0x0 SSTORE PUSH1 0x1 DUP1 SSTORE DUP1 ISZERO PUSH2 0xA2 JUMPI PUSH1 0x80 MSTORE PUSH1 0x2 DUP1 SLOAD PUSH1 0x1 PUSH1 0x1 PUSH1 0xA0 SHL SUB NOT AND CALLER OR SWAP1 SSTORE PUSH1 0x40 MLOAD PUSH2 0x1953 SWAP1 DUP2 PUSH2 0xF3 DUP3 CODECOPY PUSH1 0x80 MLOAD DUP2 DUP2 DUP2 PUSH2 0x644 ADD MSTORE DUP2 DUP2 PUSH2 0xCE1 ADD MSTORE DUP2 DUP2 PUSH2 0xDA5 ADD MSTORE PUSH2 0x1137 ADD MSTORE RETURN JUMPDEST PUSH1 0x40 MLOAD PUSH3 0x461BCD PUSH1 0xE5 SHL DUP2 MSTORE PUSH1 0x20 PUSH1 0x4 DUP3 ADD MSTORE PUSH1 0xD PUSH1 0x24 DUP3 ADD MSTORE PUSH13 0x24B73B30B634B2103A37B5B2B7 PUSH1 0x99 SHL PUSH1 0x44 DUP3 ADD MSTORE PUSH1 0x64 SWAP1 REVERT JUMPDEST PUSH1 0x0 DUP1 REVERT JUMPDEST PUSH4 0x4E487B71 PUSH1 0xE0 SHL PUSH1 0x0 MSTORE PUSH1 0x41 PUSH1 0x4 MSTORE PUSH1 0x24 PUSH1 0x0 REVERT INVALID PUSH1 0x80 PUSH1 0x40 MSTORE PUSH1 0x4 CALLDATASIZE LT ISZERO PUSH2 0x12 JUMPI PUSH1 0x0 DUP1 REVERT JUMPDEST PUSH1 0x0 CALLDATALOAD PUSH1 0xE0 SHR DUP1 PUSH4 0x3280A836 EQ PUSH2 0x1458 JUMPI DUP1 PUSH4 0x6D6A5C5C EQ PUSH2 0x13CD JUMPI DUP1 PUSH4 0x7021CAFE EQ PUSH2 0x12B7 JUMPI DUP1 PUSH4 0x7508CF12 EQ PUSH2 0x1240 JUMPI DUP1 PUSH4 0x87D81789 EQ PUSH2 0x1187 JUMPI DUP1 PUSH4 0x8D920B02 EQ PUSH2 0x10B2 JUMPI DUP1 PUSH4 0xA647D1D3 EQ PUSH2 0xD10 JUMPI DUP1 PUSH4 0xA9D75B2B EQ PUSH2 0xCCB JUMPI DUP1 PUSH4 0xC87DDF6B EQ PUSH2 0xC44 JUMPI DUP1 PUSH4 0xD3A0E907 EQ PUSH2 0x6AA JUMPI DUP1 PUSH4 0xE5B185BB EQ PUSH2 0x58B JUMPI DUP1 PUSH4 0xEE14E939 EQ PUSH2 0x4EB JUMPI DUP1 PUSH4 0xF851A440 EQ PUSH2 0x4C2 JUMPI PUSH4 0xF8DEFA3C EQ PUSH2 0xB6 JUMPI PUSH1 0x0 DUP1 REVERT JUMPDEST CALLVALUE PUSH2 0x4BD JUMPI PUSH1 0x0 CALLDATASIZE PUSH1 0x3 NOT ADD SLT PUSH2 0x4BD JUMPI PUSH1 0x1 SLOAD PUSH1 0x0 NOT DUP2 ADD SWAP1 DUP2 GT PUSH2 0x41D JUMPI PUSH2 0xDF DUP2 PUSH2 0x182E JUMP JUMPDEST SWAP1 PUSH2 0xED PUSH1 0x40 MLOAD SWAP3 DUP4 PUSH2 0x1603 JUMP JUMPDEST DUP1 DUP3 MSTORE PUSH1 0x1F NOT PUSH2 0xFC DUP3 PUSH2 0x182E JUMP JUMPDEST ADD PUSH1 0x0 JUMPDEST DUP2 DUP2 LT PUSH2 0x466 JUMPI POP POP PUSH2 0x112 DUP2 PUSH2 0x182E JUMP JUMPDEST SWAP1 PUSH2 0x120 PUSH1 0x40 MLOAD SWAP3 DUP4 PUSH2 0x1603 JUMP JUMPDEST DUP1 DUP3 MSTORE PUSH1 0x1F NOT PUSH2 0x12F DUP3 PUSH2 0x182E JUMP JUMPDEST ADD PUSH1 0x0 JUMPDEST DUP2 DUP2 LT PUSH2 0x433 JUMPI POP POP PUSH1 0x1 JUMPDEST DUP2 DUP2 GT ISZERO PUSH2 0x2C1 JUMPI DUP3 DUP5 PUSH1 0x40 MLOAD SWAP2 DUP3 SWAP2 PUSH1 0x40 DUP4 ADD PUSH1 0x40 DUP5 MSTORE DUP2 MLOAD DUP1 SWAP2 MSTORE PUSH1 0x60 DUP5 ADD SWAP1 PUSH1 0x20 PUSH1 0x60 DUP3 PUSH1 0x5 SHL DUP8 ADD ADD SWAP4 ADD SWAP2 PUSH1 0x0 SWAP1 JUMPDEST DUP3 DUP3 LT PUSH2 0x21E JUMPI POP POP POP POP DUP3 DUP2 SUB PUSH1 0x20 DUP5 ADD MSTORE DUP2 MLOAD DUP1 DUP3 MSTORE PUSH1 0x20 DUP3 ADD SWAP2 PUSH1 0x20 DUP1 DUP4 PUSH1 0x5 SHL DUP4 ADD ADD SWAP5 ADD SWAP3 PUSH1 0x0 SWAP2 JUMPDEST DUP4 DUP4 LT PUSH2 0x1AE JUMPI DUP7 DUP7 SUB DUP8 RETURN JUMPDEST SWAP2 SWAP4 SWAP6 POP SWAP2 SWAP4 PUSH1 0x20 DUP1 PUSH1 0x1 SWAP3 PUSH1 0x1F NOT DUP6 DUP3 SUB ADD DUP7 MSTORE DUP9 MLOAD SWAP1 PUSH1 0x60 DUP1 PUSH2 0x204 PUSH2 0x1F2 PUSH2 0x1E2 DUP7 MLOAD PUSH1 0x80 DUP8 MSTORE PUSH1 0x80 DUP8 ADD SWAP1 PUSH2 0x14F4 JUMP JUMPDEST DUP8 DUP8 ADD MLOAD DUP7 DUP3 SUB DUP10 DUP9 ADD MSTORE PUSH2 0x14F4 JUMP JUMPDEST PUSH1 0x40 DUP7 ADD MLOAD DUP6 DUP3 SUB PUSH1 0x40 DUP8 ADD MSTORE PUSH2 0x14F4 JUMP JUMPDEST SWAP4 ADD MLOAD ISZERO ISZERO SWAP2 ADD MSTORE SWAP8 ADD SWAP4 ADD SWAP4 ADD SWAP1 SWAP3 DUP7 SWAP6 SWAP5 SWAP3 SWAP4 PUSH2 0x1A1 JUMP JUMPDEST SWAP2 SWAP4 PUSH1 0x1 SWAP2 SWAP4 SWAP6 SWAP7 POP PUSH1 0x20 DUP1 SWAP2 PUSH1 0x5F NOT DUP11 DUP3 SUB ADD DUP6 MSTORE DUP8 MLOAD SWAP1 DUP2 MLOAD DUP2 MSTORE DUP5 DUP1 PUSH1 0xA0 SHL SUB DUP4 DUP4 ADD MLOAD AND DUP4 DUP3 ADD MSTORE DUP5 DUP1 PUSH1 0xA0 SHL SUB PUSH1 0x40 DUP4 ADD MLOAD AND PUSH1 0x40 DUP3 ADD MSTORE PUSH1 0x60 DUP3 ADD MLOAD PUSH1 0x60 DUP3 ADD MSTORE PUSH1 0x80 DUP3 ADD MLOAD PUSH1 0x80 DUP3 ADD MSTORE PUSH2 0x100 DUP1 PUSH2 0x28E PUSH1 0xA0 DUP6 ADD MLOAD PUSH2 0x120 PUSH1 0xA0 DUP7 ADD MSTORE PUSH2 0x120 DUP6 ADD SWAP1 PUSH2 0x14F4 JUMP JUMPDEST SWAP4 PUSH2 0x2A1 PUSH1 0xC0 DUP3 ADD MLOAD PUSH1 0xC0 DUP7 ADD SWAP1 PUSH2 0x1535 JUMP JUMPDEST PUSH1 0xE0 DUP2 ADD MLOAD PUSH1 0xE0 DUP6 ADD MSTORE ADD MLOAD SWAP2 ADD MSTORE SWAP7 ADD SWAP3 ADD SWAP3 ADD DUP7 SWAP6 SWAP5 SWAP4 SWAP2 SWAP3 PUSH2 0x173 JUMP JUMPDEST DUP1 PUSH1 0x0 MSTORE PUSH1 0x3 PUSH1 0x20 MSTORE PUSH1 0x40 PUSH1 0x0 KECCAK256 SWAP1 PUSH1 0x0 NOT DUP2 ADD SWAP2 DUP2 DUP4 GT PUSH2 0x41D JUMPI PUSH1 0x40 MLOAD SWAP3 PUSH2 0x2EA DUP5 PUSH2 0x15CC JUMP JUMPDEST DUP2 SLOAD DUP5 MSTORE PUSH1 0x1 DUP3 ADD SLOAD PUSH1 0x1 PUSH1 0x1 PUSH1 0xA0 SHL SUB SWAP1 DUP2 AND PUSH1 0x20 DUP7 ADD MSTORE PUSH1 0x2 DUP4 ADD SLOAD AND PUSH1 0x40 DUP6 ADD MSTORE PUSH1 0x3 DUP3 ADD SLOAD PUSH1 0x60 DUP6 ADD MSTORE PUSH1 0x4 DUP3 ADD SLOAD PUSH1 0x80 DUP6 ADD MSTORE PUSH2 0x32E PUSH1 0x5 DUP4 ADD PUSH2 0x1624 JUMP JUMPDEST PUSH1 0xA0 DUP6 ADD MSTORE PUSH1 0xFF PUSH1 0x6 DUP4 ADD SLOAD AND SWAP4 PUSH1 0x4 DUP6 LT ISZERO PUSH2 0x407 JUMPI PUSH1 0x8 PUSH2 0x3FC SWAP4 PUSH2 0x402 SWAP7 PUSH1 0xC0 DUP5 ADD MSTORE PUSH1 0x7 DUP2 ADD SLOAD PUSH1 0xE0 DUP5 ADD MSTORE ADD SLOAD PUSH2 0x100 DUP3 ADD MSTORE PUSH2 0x370 DUP3 DUP10 PUSH2 0x1845 JUMP JUMPDEST MSTORE PUSH2 0x37B DUP2 DUP9 PUSH2 0x1845 JUMP JUMPDEST POP DUP3 PUSH1 0x0 MSTORE PUSH1 0x3 PUSH1 0x20 MSTORE PUSH1 0x1 DUP1 PUSH1 0xA0 SHL SUB PUSH1 0x2 PUSH1 0x40 PUSH1 0x0 KECCAK256 ADD SLOAD AND PUSH1 0x0 MSTORE PUSH1 0x5 PUSH1 0x20 MSTORE PUSH1 0x40 PUSH1 0x0 KECCAK256 PUSH1 0xFF PUSH1 0x3 PUSH1 0x40 MLOAD SWAP3 PUSH2 0x3B4 DUP5 PUSH2 0x15E8 JUMP JUMPDEST PUSH2 0x3BD DUP2 PUSH2 0x1624 JUMP JUMPDEST DUP5 MSTORE PUSH2 0x3CB PUSH1 0x1 DUP3 ADD PUSH2 0x1624 JUMP JUMPDEST PUSH1 0x20 DUP6 ADD MSTORE PUSH2 0x3DC PUSH1 0x2 DUP3 ADD PUSH2 0x1624 JUMP JUMPDEST PUSH1 0x40 DUP6 ADD MSTORE ADD SLOAD AND ISZERO ISZERO PUSH1 0x60 DUP3 ADD MSTORE PUSH2 0x3F5 DUP3 DUP9 PUSH2 0x1845 JUMP JUMPDEST MSTORE DUP6 PUSH2 0x1845 JUMP JUMPDEST POP PUSH2 0x1774 JUMP JUMPDEST PUSH2 0x13F JUMP JUMPDEST PUSH4 0x4E487B71 PUSH1 0xE0 SHL PUSH1 0x0 MSTORE PUSH1 0x21 PUSH1 0x4 MSTORE PUSH1 0x24 PUSH1 0x0 REVERT JUMPDEST PUSH4 0x4E487B71 PUSH1 0xE0 SHL PUSH1 0x0 MSTORE PUSH1 0x11 PUSH1 0x4 MSTORE PUSH1 0x24 PUSH1 0x0 REVERT JUMPDEST PUSH1 0x20 SWAP1 PUSH1 0x40 MLOAD PUSH2 0x442 DUP2 PUSH2 0x15E8 JUMP JUMPDEST PUSH1 0x60 DUP2 MSTORE PUSH1 0x60 DUP4 DUP3 ADD MSTORE PUSH1 0x60 PUSH1 0x40 DUP3 ADD MSTORE PUSH1 0x0 PUSH1 0x60 DUP3 ADD MSTORE DUP3 DUP3 DUP8 ADD ADD MSTORE ADD PUSH2 0x133 JUMP JUMPDEST PUSH1 0x20 SWAP1 PUSH1 0x40 MLOAD PUSH2 0x475 DUP2 PUSH2 0x15CC JUMP JUMPDEST PUSH1 0x0 DUP2 MSTORE PUSH1 0x0 DUP4 DUP3 ADD MSTORE PUSH1 0x0 PUSH1 0x40 DUP3 ADD MSTORE PUSH1 0x0 PUSH1 0x60 DUP3 ADD MSTORE PUSH1 0x0 PUSH1 0x80 DUP3 ADD MSTORE PUSH1 0x60 PUSH1 0xA0 DUP3 ADD MSTORE PUSH1 0x0 PUSH1 0xC0 DUP3 ADD MSTORE PUSH1 0x0 PUSH1 0xE0 DUP3 ADD MSTORE PUSH1 0x0 PUSH2 0x100 DUP3 ADD MSTORE DUP3 DUP3 DUP8 ADD ADD MSTORE ADD PUSH2 0x100 JUMP JUMPDEST PUSH1 0x0 DUP1 REVERT JUMPDEST CALLVALUE PUSH2 0x4BD JUMPI PUSH1 0x0 CALLDATASIZE PUSH1 0x3 NOT ADD SLT PUSH2 0x4BD JUMPI PUSH1 0x2 SLOAD PUSH1 0x40 MLOAD PUSH1 0x1 PUSH1 0x1 PUSH1 0xA0 SHL SUB SWAP1 SWAP2 AND DUP2 MSTORE PUSH1 0x20 SWAP1 RETURN JUMPDEST CALLVALUE PUSH2 0x4BD JUMPI PUSH1 0x20 CALLDATASIZE PUSH1 0x3 NOT ADD SLT PUSH2 0x4BD JUMPI PUSH1 0x1 PUSH1 0x1 PUSH1 0xA0 SHL SUB PUSH2 0x50C PUSH2 0x1542 JUMP JUMPDEST AND PUSH1 0x0 MSTORE PUSH1 0x5 PUSH1 0x20 MSTORE PUSH2 0x563 PUSH1 0x40 PUSH1 0x0 KECCAK256 PUSH2 0x526 DUP2 PUSH2 0x1624 JUMP JUMPDEST SWAP1 PUSH2 0x57F PUSH2 0x536 PUSH1 0x1 DUP4 ADD PUSH2 0x1624 JUMP JUMPDEST SWAP2 PUSH2 0x571 PUSH1 0xFF PUSH1 0x3 PUSH2 0x54A PUSH1 0x2 DUP6 ADD PUSH2 0x1624 JUMP JUMPDEST SWAP4 ADD SLOAD AND SWAP4 PUSH1 0x40 MLOAD SWAP7 DUP8 SWAP7 PUSH1 0x80 DUP9 MSTORE PUSH1 0x80 DUP9 ADD SWAP1 PUSH2 0x14F4 JUMP JUMPDEST SWAP1 DUP7 DUP3 SUB PUSH1 0x20 DUP9 ADD MSTORE PUSH2 0x14F4 JUMP JUMPDEST SWAP1 DUP5 DUP3 SUB PUSH1 0x40 DUP7 ADD MSTORE PUSH2 0x14F4 JUMP JUMPDEST SWAP1 ISZERO ISZERO PUSH1 0x60 DUP4 ADD MSTORE SUB SWAP1 RETURN JUMPDEST CALLVALUE PUSH2 0x4BD JUMPI PUSH1 0x40 CALLDATASIZE PUSH1 0x3 NOT ADD SLT PUSH2 0x4BD JUMPI PUSH1 0x4 CALLDATALOAD PUSH1 0x24 CALLDATALOAD PUSH2 0x5AA PUSH2 0x1859 JUMP JUMPDEST DUP2 PUSH1 0x0 MSTORE PUSH1 0x3 PUSH1 0x20 MSTORE PUSH1 0x40 PUSH1 0x0 KECCAK256 PUSH2 0x5CF PUSH1 0x1 DUP1 PUSH1 0xA0 SHL SUB PUSH1 0x2 DUP4 ADD SLOAD AND CALLER EQ PUSH2 0x16F5 JUMP JUMPDEST PUSH1 0x6 DUP2 ADD SWAP2 PUSH1 0xFF DUP4 SLOAD AND PUSH1 0x4 DUP2 LT ISZERO PUSH2 0x407 JUMPI PUSH2 0x5EC SWAP1 ISZERO PUSH2 0x1734 JUMP JUMPDEST DUP1 ISZERO PUSH2 0x676 JUMPI PUSH2 0x668 PUSH1 0x20 SWAP3 PUSH32 0x39F916CFA4E8A7F5D298DF5A811D42BBBDFA00E81FDC65D937067EE18BFA2732 SWAP5 PUSH1 0x1 PUSH1 0xFF NOT DUP3 SLOAD AND OR SWAP1 SSTORE DUP3 PUSH1 0x7 DUP3 ADD SSTORE TIMESTAMP PUSH1 0x8 DUP3 ADD SSTORE PUSH1 0x3 PUSH1 0x1 DUP1 PUSH1 0xA0 SHL SUB PUSH1 0x2 SLOAD AND SWAP2 ADD SLOAD SWAP1 PUSH32 0x0 PUSH2 0x187B JUMP JUMPDEST PUSH1 0x40 MLOAD SWAP1 DUP2 MSTORE LOG2 PUSH1 0x1 PUSH1 0x0 SSTORE STOP JUMPDEST PUSH1 0x40 MLOAD PUSH3 0x461BCD PUSH1 0xE5 SHL DUP2 MSTORE PUSH1 0x20 PUSH1 0x4 DUP3 ADD MSTORE PUSH1 0xC PUSH1 0x24 DUP3 ADD MSTORE PUSH12 0x496E76616C69642072617465 PUSH1 0xA0 SHL PUSH1 0x44 DUP3 ADD MSTORE PUSH1 0x64 SWAP1 REVERT JUMPDEST CALLVALUE PUSH2 0x4BD JUMPI PUSH1 0x60 CALLDATASIZE PUSH1 0x3 NOT ADD SLT PUSH2 0x4BD JUMPI PUSH1 0x4 CALLDATALOAD PUSH1 0x1 PUSH1 0x1 PUSH1 0x40 SHL SUB DUP2 GT PUSH2 0x4BD JUMPI PUSH2 0x6DA SWAP1 CALLDATASIZE SWAP1 PUSH1 0x4 ADD PUSH2 0x16C8 JUMP JUMPDEST SWAP1 PUSH1 0x24 CALLDATALOAD PUSH1 0x1 PUSH1 0x1 PUSH1 0x40 SHL SUB DUP2 GT PUSH2 0x4BD JUMPI PUSH2 0x6FA SWAP1 CALLDATASIZE SWAP1 PUSH1 0x4 ADD PUSH2 0x16C8 JUMP JUMPDEST SWAP2 SWAP1 SWAP3 PUSH1 0x44 CALLDATALOAD PUSH1 0x1 PUSH1 0x1 PUSH1 0x40 SHL SUB DUP2 GT PUSH2 0x4BD JUMPI PUSH2 0x71C SWAP1 CALLDATASIZE SWAP1 PUSH1 0x4 ADD PUSH2 0x16C8 JUMP JUMPDEST SWAP1 SWAP4 DUP3 ISZERO PUSH2 0xC0A JUMPI DUP1 ISZERO PUSH2 0xBCD JUMPI DUP2 ISZERO PUSH2 0xB88 JUMPI PUSH1 0x40 MLOAD PUSH2 0x73C DUP2 PUSH2 0x15E8 JUMP JUMPDEST PUSH2 0x747 CALLDATASIZE DUP6 DUP8 PUSH2 0x1783 JUMP JUMPDEST DUP2 MSTORE PUSH2 0x754 CALLDATASIZE DUP4 DUP10 PUSH2 0x1783 JUMP JUMPDEST SWAP1 PUSH1 0x20 DUP2 ADD SWAP2 DUP3 MSTORE PUSH2 0x767 CALLDATASIZE DUP6 DUP10 PUSH2 0x1783 JUMP JUMPDEST PUSH1 0x40 DUP3 ADD SWAP1 DUP2 MSTORE PUSH1 0x60 DUP3 ADD SWAP3 PUSH1 0x1 DUP5 MSTORE CALLER PUSH1 0x0 MSTORE PUSH1 0x5 PUSH1 0x20 MSTORE PUSH1 0x40 PUSH1 0x0 KECCAK256 SWAP3 MLOAD DUP1 MLOAD SWAP1 PUSH1 0x1 PUSH1 0x1 PUSH1 0x40 SHL SUB DUP3 GT PUSH2 0x9EC JUMPI DUP2 SWAP1 PUSH2 0x7A4 DUP7 SLOAD PUSH2 0x1592 JUMP JUMPDEST PUSH1 0x1F DUP2 GT PUSH2 0xB35 JUMPI JUMPDEST POP PUSH1 0x20 SWAP1 PUSH1 0x1F DUP4 GT PUSH1 0x1 EQ PUSH2 0xAD0 JUMPI PUSH1 0x0 SWAP3 PUSH2 0xAC5 JUMPI JUMPDEST POP POP DUP2 PUSH1 0x1 SHL SWAP2 PUSH1 0x0 NOT SWAP1 PUSH1 0x3 SHL SHR NOT AND OR DUP4 SSTORE JUMPDEST MLOAD DUP1 MLOAD PUSH1 0x1 DUP5 ADD SWAP2 PUSH1 0x1 PUSH1 0x1 PUSH1 0x40 SHL SUB DUP3 GT PUSH2 0x9EC JUMPI DUP2 SWAP1 PUSH2 0x7FB DUP5 SLOAD PUSH2 0x1592 JUMP JUMPDEST PUSH1 0x1F DUP2 GT PUSH2 0xA72 JUMPI JUMPDEST POP PUSH1 0x20 SWAP1 PUSH1 0x1F DUP4 GT PUSH1 0x1 EQ PUSH2 0xA0D JUMPI PUSH1 0x0 SWAP3 PUSH2 0xA02 JUMPI JUMPDEST POP POP DUP2 PUSH1 0x1 SHL SWAP2 PUSH1 0x0 NOT SWAP1 PUSH1 0x3 SHL SHR NOT AND OR SWAP1 SSTORE JUMPDEST MLOAD DUP1 MLOAD PUSH1 0x2 DUP4 ADD SWAP2 PUSH1 0x1 PUSH1 0x1 PUSH1 0x40 SHL SUB DUP3 GT PUSH2 0x9EC JUMPI PUSH2 0x850 DUP4 SLOAD PUSH2 0x1592 JUMP JUMPDEST PUSH1 0x1F DUP2 GT PUSH2 0x9A4 JUMPI JUMPDEST POP PUSH1 0x20 SWAP1 PUSH1 0x1F DUP4 GT PUSH1 0x1 EQ PUSH2 0x90E JUMPI SWAP4 PUSH2 0x8FE SWAP8 SWAP7 SWAP4 DUP4 PUSH2 0x8EE SWAP8 SWAP5 PUSH1 0x3 SWAP5 PUSH32 0xB51F26C130A97C91544FC6EA433CE79C9A39499CA08AB1770865DB7ABF52FE7C SWAP15 SWAP16 SWAP9 PUSH1 0x0 SWAP3 PUSH2 0x903 JUMPI JUMPDEST POP POP DUP2 PUSH1 0x1 SHL SWAP2 PUSH1 0x0 NOT SWAP1 DUP7 SHL SHR NOT AND OR SWAP1 SSTORE JUMPDEST ADD SWAP1 MLOAD ISZERO ISZERO PUSH1 0xFF DUP1 NOT DUP4 SLOAD AND SWAP2 AND OR SWAP1 SSTORE PUSH2 0x8E0 PUSH1 0x40 MLOAD SWAP8 DUP9 SWAP8 PUSH1 0x60 DUP10 MSTORE PUSH1 0x60 DUP10 ADD SWAP2 PUSH2 0x180D JUMP JUMPDEST SWAP2 DUP7 DUP4 SUB PUSH1 0x20 DUP9 ADD MSTORE PUSH2 0x180D JUMP JUMPDEST SWAP1 DUP4 DUP3 SUB PUSH1 0x40 DUP6 ADD MSTORE CALLER SWAP7 PUSH2 0x180D JUMP JUMPDEST SUB SWAP1 LOG2 STOP JUMPDEST ADD MLOAD SWAP1 POP DUP16 DUP1 PUSH2 0x8A4 JUMP JUMPDEST SWAP1 PUSH1 0x1F NOT DUP4 AND SWAP2 DUP5 PUSH1 0x0 MSTORE DUP2 PUSH1 0x0 KECCAK256 SWAP3 PUSH1 0x0 JUMPDEST DUP2 DUP2 LT PUSH2 0x98C JUMPI POP DUP5 PUSH1 0x3 SWAP5 PUSH32 0xB51F26C130A97C91544FC6EA433CE79C9A39499CA08AB1770865DB7ABF52FE7C SWAP15 SWAP16 SWAP9 SWAP5 PUSH2 0x8FE SWAP13 SWAP12 SWAP9 SWAP5 PUSH2 0x8EE SWAP12 SWAP9 PUSH1 0x1 SWAP6 LT PUSH2 0x974 JUMPI JUMPDEST POP POP POP DUP2 SHL ADD SWAP1 SSTORE PUSH2 0x8B8 JUMP JUMPDEST ADD MLOAD PUSH1 0x0 NOT DUP4 DUP9 SHL PUSH1 0xF8 AND SHR NOT AND SWAP1 SSTORE DUP16 DUP1 DUP1 PUSH2 0x967 JUMP JUMPDEST SWAP3 SWAP4 PUSH1 0x20 PUSH1 0x1 DUP2 SWAP3 DUP8 DUP7 ADD MLOAD DUP2 SSTORE ADD SWAP6 ADD SWAP4 ADD PUSH2 0x921 JUMP JUMPDEST DUP4 PUSH1 0x0 MSTORE PUSH1 0x20 PUSH1 0x0 KECCAK256 PUSH1 0x1F DUP5 ADD PUSH1 0x5 SHR DUP2 ADD SWAP2 PUSH1 0x20 DUP6 LT PUSH2 0x9E2 JUMPI JUMPDEST PUSH1 0x1F ADD PUSH1 0x5 SHR ADD SWAP1 JUMPDEST DUP2 DUP2 LT PUSH2 0x9D6 JUMPI POP PUSH2 0x859 JUMP JUMPDEST PUSH1 0x0 DUP2 SSTORE PUSH1 0x1 ADD PUSH2 0x9C9 JUMP JUMPDEST SWAP1 SWAP2 POP DUP2 SWAP1 PUSH2 0x9C0 JUMP JUMPDEST PUSH4 0x4E487B71 PUSH1 0xE0 SHL PUSH1 0x0 MSTORE PUSH1 0x41 PUSH1 0x4 MSTORE PUSH1 0x24 PUSH1 0x0 REVERT JUMPDEST ADD MLOAD SWAP1 POP DUP13 DUP1 PUSH2 0x81B JUMP JUMPDEST PUSH1 0x0 DUP6 DUP2 MSTORE DUP3 DUP2 KECCAK256 SWAP4 POP PUSH1 0x1F NOT DUP6 AND SWAP1 JUMPDEST DUP2 DUP2 LT PUSH2 0xA5A JUMPI POP SWAP1 DUP5 PUSH1 0x1 SWAP6 SWAP5 SWAP4 SWAP3 LT PUSH2 0xA41 JUMPI JUMPDEST POP POP POP DUP2 SHL ADD SWAP1 SSTORE PUSH2 0x830 JUMP JUMPDEST ADD MLOAD PUSH1 0x0 NOT PUSH1 0xF8 DUP5 PUSH1 0x3 SHL AND SHR NOT AND SWAP1 SSTORE DUP13 DUP1 DUP1 PUSH2 0xA34 JUMP JUMPDEST SWAP3 SWAP4 PUSH1 0x20 PUSH1 0x1 DUP2 SWAP3 DUP8 DUP7 ADD MLOAD DUP2 SSTORE ADD SWAP6 ADD SWAP4 ADD PUSH2 0xA1E JUMP JUMPDEST SWAP1 SWAP2 POP DUP4 PUSH1 0x0 MSTORE PUSH1 0x20 PUSH1 0x0 KECCAK256 PUSH1 0x1F DUP5 ADD PUSH1 0x5 SHR DUP2 ADD SWAP2 PUSH1 0x20 DUP6 LT PUSH2 0xABB JUMPI JUMPDEST SWAP1 PUSH1 0x1F DUP6 SWAP5 SWAP4 SWAP3 ADD PUSH1 0x5 SHR ADD SWAP1 JUMPDEST DUP2 DUP2 LT PUSH2 0xAAC JUMPI POP PUSH2 0x804 JUMP JUMPDEST PUSH1 0x0 DUP2 SSTORE DUP5 SWAP4 POP PUSH1 0x1 ADD PUSH2 0xA9F JUMP JUMPDEST SWAP1 SWAP2 POP DUP2 SWAP1 PUSH2 0xA91 JUMP JUMPDEST ADD MLOAD SWAP1 POP DUP13 DUP1 PUSH2 0x7C4 JUMP JUMPDEST PUSH1 0x0 DUP8 DUP2 MSTORE DUP3 DUP2 KECCAK256 SWAP4 POP PUSH1 0x1F NOT DUP6 AND SWAP1 JUMPDEST DUP2 DUP2 LT PUSH2 0xB1D JUMPI POP SWAP1 DUP5 PUSH1 0x1 SWAP6 SWAP5 SWAP4 SWAP3 LT PUSH2 0xB04 JUMPI JUMPDEST POP POP POP DUP2 SHL ADD DUP4 SSTORE PUSH2 0x7D9 JUMP JUMPDEST ADD MLOAD PUSH1 0x0 NOT PUSH1 0xF8 DUP5 PUSH1 0x3 SHL AND SHR NOT AND SWAP1 SSTORE DUP13 DUP1 DUP1 PUSH2 0xAF7 JUMP JUMPDEST SWAP3 SWAP4 PUSH1 0x20 PUSH1 0x1 DUP2 SWAP3 DUP8 DUP7 ADD MLOAD DUP2 SSTORE ADD SWAP6 ADD SWAP4 ADD PUSH2 0xAE1 JUMP JUMPDEST SWAP1 SWAP2 POP DUP6 PUSH1 0x0 MSTORE PUSH1 0x20 PUSH1 0x0 KECCAK256 PUSH1 0x1F DUP5 ADD PUSH1 0x5 SHR DUP2 ADD SWAP2 PUSH1 0x20 DUP6 LT PUSH2 0xB7E JUMPI JUMPDEST SWAP1 PUSH1 0x1F DUP6 SWAP5 SWAP4 SWAP3 ADD PUSH1 0x5 SHR ADD SWAP1 JUMPDEST DUP2 DUP2 LT PUSH2 0xB6F JUMPI POP PUSH2 0x7AD JUMP JUMPDEST PUSH1 0x0 DUP2 SSTORE DUP5 SWAP4 POP PUSH1 0x1 ADD PUSH2 0xB62 JUMP JUMPDEST SWAP1 SWAP2 POP DUP2 SWAP1 PUSH2 0xB54 JUMP JUMPDEST PUSH1 0x40 MLOAD PUSH3 0x461BCD PUSH1 0xE5 SHL DUP2 MSTORE PUSH1 0x20 PUSH1 0x4 DUP3 ADD MSTORE PUSH1 0x17 PUSH1 0x24 DUP3 ADD MSTORE PUSH32 0x4163636F756E74206E756D626572207265717569726564000000000000000000 PUSH1 0x44 DUP3 ADD MSTORE PUSH1 0x64 SWAP1 REVERT JUMPDEST PUSH1 0x40 MLOAD PUSH3 0x461BCD PUSH1 0xE5 SHL DUP2 MSTORE PUSH1 0x20 PUSH1 0x4 DUP3 ADD MSTORE PUSH1 0x15 PUSH1 0x24 DUP3 ADD MSTORE PUSH21 0x1058D8DBDD5B9D081B985B59481C995C5D5A5C9959 PUSH1 0x5A SHL PUSH1 0x44 DUP3 ADD MSTORE PUSH1 0x64 SWAP1 REVERT JUMPDEST PUSH1 0x40 MLOAD PUSH3 0x461BCD PUSH1 0xE5 SHL DUP2 MSTORE PUSH1 0x20 PUSH1 0x4 DUP3 ADD MSTORE PUSH1 0x12 PUSH1 0x24 DUP3 ADD MSTORE PUSH18 0x10985B9AC81B985B59481C995C5D5A5C9959 PUSH1 0x72 SHL PUSH1 0x44 DUP3 ADD MSTORE PUSH1 0x64 SWAP1 REVERT JUMPDEST CALLVALUE PUSH2 0x4BD JUMPI PUSH1 0x20 CALLDATASIZE PUSH1 0x3 NOT ADD SLT PUSH2 0x4BD JUMPI PUSH1 0x1 PUSH1 0x1 PUSH1 0xA0 SHL SUB PUSH2 0xC65 PUSH2 0x1542 JUMP JUMPDEST AND PUSH1 0x0 MSTORE PUSH1 0x6 PUSH1 0x20 MSTORE PUSH1 0x40 PUSH1 0x0 KECCAK256 PUSH1 0x40 MLOAD SWAP1 DUP2 PUSH1 0x20 DUP3 SLOAD SWAP2 DUP3 DUP2 MSTORE ADD SWAP2 PUSH1 0x0 MSTORE PUSH1 0x20 PUSH1 0x0 KECCAK256 SWAP1 PUSH1 0x0 JUMPDEST DUP2 DUP2 LT PUSH2 0xCB5 JUMPI PUSH2 0xCB1 DUP6 PUSH2 0xCA5 DUP2 DUP8 SUB DUP3 PUSH2 0x1603 JUMP JUMPDEST PUSH1 0x40 MLOAD SWAP2 DUP3 SWAP2 DUP3 PUSH2 0x1558 JUMP JUMPDEST SUB SWAP1 RETURN JUMPDEST DUP3 SLOAD DUP5 MSTORE PUSH1 0x20 SWAP1 SWAP4 ADD SWAP3 PUSH1 0x1 SWAP3 DUP4 ADD SWAP3 ADD PUSH2 0xC8E JUMP JUMPDEST CALLVALUE PUSH2 0x4BD JUMPI PUSH1 0x0 CALLDATASIZE PUSH1 0x3 NOT ADD SLT PUSH2 0x4BD JUMPI PUSH1 0x40 MLOAD PUSH32 0x0 PUSH1 0x1 PUSH1 0x1 PUSH1 0xA0 SHL SUB AND DUP2 MSTORE PUSH1 0x20 SWAP1 RETURN JUMPDEST CALLVALUE PUSH2 0x4BD JUMPI PUSH1 0x60 CALLDATASIZE PUSH1 0x3 NOT ADD SLT PUSH2 0x4BD JUMPI PUSH2 0xD29 PUSH2 0x1542 JUMP JUMPDEST PUSH1 0x24 CALLDATALOAD SWAP1 PUSH1 0x44 CALLDATALOAD PUSH1 0x1 PUSH1 0x1 PUSH1 0x40 SHL SUB DUP2 GT PUSH2 0x4BD JUMPI PUSH2 0xD4C SWAP1 CALLDATASIZE SWAP1 PUSH1 0x4 ADD PUSH2 0x16C8 JUMP JUMPDEST SWAP1 SWAP2 PUSH2 0xD56 PUSH2 0x1859 JUMP JUMPDEST PUSH1 0x1 PUSH1 0x1 PUSH1 0xA0 SHL SUB AND SWAP2 DUP3 ISZERO PUSH2 0x107A JUMPI DUP4 ISZERO PUSH2 0x1044 JUMPI PUSH1 0x0 SWAP4 PUSH2 0xDC9 PUSH1 0x40 MLOAD PUSH4 0x23B872DD PUSH1 0xE0 SHL PUSH1 0x20 DUP3 ADD MSTORE CALLER PUSH1 0x24 DUP3 ADD MSTORE ADDRESS PUSH1 0x44 DUP3 ADD MSTORE DUP3 PUSH1 0x64 DUP3 ADD MSTORE PUSH1 0x64 DUP2 MSTORE PUSH2 0xDA3 PUSH1 0x84 DUP3 PUSH2 0x1603 JUMP JUMPDEST PUSH32 0x0 PUSH2 0x18B6 JUMP JUMPDEST PUSH1 0x1 SLOAD SWAP2 PUSH2 0xDD6 DUP4 PUSH2 0x1774 JUMP JUMPDEST PUSH1 0x1 SSTORE PUSH1 0x40 MLOAD SWAP2 PUSH2 0xDE6 DUP4 PUSH2 0x15CC JUMP JUMPDEST DUP4 DUP4 MSTORE PUSH1 0x20 DUP4 ADD SWAP3 CALLER DUP5 MSTORE PUSH1 0x40 DUP2 ADD DUP8 DUP2 MSTORE PUSH1 0x60 DUP3 ADD DUP4 DUP2 MSTORE PUSH1 0x80 DUP4 ADD TIMESTAMP DUP2 MSTORE PUSH2 0xE11 CALLDATASIZE DUP11 DUP9 PUSH2 0x1783 JUMP JUMPDEST PUSH1 0xA0 DUP6 ADD SWAP1 DUP2 MSTORE PUSH1 0xC0 DUP6 ADD DUP13 DUP2 MSTORE PUSH1 0xE0 DUP7 ADD DUP14 DUP2 MSTORE PUSH2 0x100 DUP8 ADD SWAP14 DUP15 MSTORE PUSH1 0x0 DUP12 DUP2 MSTORE PUSH1 0x3 PUSH1 0x20 DUP2 SWAP1 MSTORE PUSH1 0x40 SWAP1 SWAP2 KECCAK256 SWAP8 MLOAD DUP9 SSTORE SWAP10 MLOAD PUSH1 0x1 DUP9 ADD DUP1 SLOAD PUSH1 0x1 PUSH1 0x1 PUSH1 0xA0 SHL SUB NOT SWAP1 DUP2 AND PUSH1 0x1 PUSH1 0x1 PUSH1 0xA0 SHL SUB SWAP4 DUP5 AND OR SWAP1 SWAP2 SSTORE SWAP7 MLOAD PUSH1 0x2 DUP10 ADD DUP1 SLOAD SWAP1 SWAP9 AND SWAP2 AND OR SWAP1 SWAP6 SSTORE SWAP3 MLOAD SWAP8 DUP6 ADD SWAP8 SWAP1 SWAP8 SSTORE MLOAD PUSH1 0x4 DUP5 ADD SSTORE SWAP5 MLOAD DUP1 MLOAD SWAP2 SWAP6 SWAP2 PUSH1 0x5 DUP5 ADD SWAP2 PUSH1 0x1 PUSH1 0x1 PUSH1 0x40 SHL SUB DUP3 GT PUSH2 0x9EC JUMPI DUP2 SWAP1 PUSH2 0xEAC DUP5 SLOAD PUSH2 0x1592 JUMP JUMPDEST PUSH1 0x1F DUP2 GT PUSH2 0xFF1 JUMPI JUMPDEST POP PUSH1 0x20 SWAP1 PUSH1 0x1F DUP4 GT PUSH1 0x1 EQ PUSH2 0xF8C JUMPI PUSH1 0x0 SWAP3 PUSH2 0xF81 JUMPI JUMPDEST POP POP DUP2 PUSH1 0x1 SHL SWAP2 PUSH1 0x0 NOT SWAP1 PUSH1 0x3 SHL SHR NOT AND OR SWAP1 SSTORE JUMPDEST PUSH1 0x6 DUP3 ADD SWAP1 MLOAD SWAP9 PUSH1 0x4 DUP11 LT ISZERO PUSH2 0x407 JUMPI PUSH32 0xFB8577C305F1CBE25CF638BCFB752FA10897CF75C38E6F3533E4272159DCA6AD SWAP6 PUSH1 0x8 SWAP3 PUSH1 0x0 SWAP12 PUSH1 0xFF DUP1 NOT DUP4 SLOAD AND SWAP2 AND OR SWAP1 SSTORE MLOAD PUSH1 0x7 DUP5 ADD SSTORE MLOAD SWAP2 ADD SSTORE DUP6 DUP8 MSTORE PUSH1 0x4 PUSH1 0x20 MSTORE PUSH2 0xF44 DUP5 PUSH1 0x40 DUP10 KECCAK256 PUSH2 0x17C9 JUMP JUMPDEST CALLER DUP8 MSTORE PUSH1 0x6 PUSH1 0x20 MSTORE PUSH2 0xF59 DUP5 PUSH1 0x40 DUP10 KECCAK256 PUSH2 0x17C9 JUMP JUMPDEST PUSH2 0xF77 PUSH1 0x40 MLOAD SWAP3 DUP4 SWAP3 DUP4 MSTORE PUSH1 0x40 PUSH1 0x20 DUP5 ADD MSTORE CALLER SWAP7 PUSH1 0x40 DUP5 ADD SWAP2 PUSH2 0x180D JUMP JUMPDEST SUB SWAP1 LOG4 PUSH1 0x1 DUP2 SSTORE DUP1 RETURN JUMPDEST ADD MLOAD SWAP1 POP DUP13 DUP1 PUSH2 0xECC JUMP JUMPDEST PUSH1 0x0 DUP6 DUP2 MSTORE DUP3 DUP2 KECCAK256 SWAP4 POP PUSH1 0x1F NOT DUP6 AND SWAP1 JUMPDEST DUP2 DUP2 LT PUSH2 0xFD9 JUMPI POP SWAP1 DUP5 PUSH1 0x1 SWAP6 SWAP5 SWAP4 SWAP3 LT PUSH2 0xFC0 JUMPI JUMPDEST POP POP POP DUP2 SHL ADD SWAP1 SSTORE PUSH2 0xEE1 JUMP JUMPDEST ADD MLOAD PUSH1 0x0 NOT PUSH1 0xF8 DUP5 PUSH1 0x3 SHL AND SHR NOT AND SWAP1 SSTORE DUP13 DUP1 DUP1 PUSH2 0xFB3 JUMP JUMPDEST SWAP3 SWAP4 PUSH1 0x20 PUSH1 0x1 DUP2 SWAP3 DUP8 DUP7 ADD MLOAD DUP2 SSTORE ADD SWAP6 ADD SWAP4 ADD PUSH2 0xF9D JUMP JUMPDEST SWAP1 SWAP2 POP DUP4 PUSH1 0x0 MSTORE PUSH1 0x20 PUSH1 0x0 KECCAK256 PUSH1 0x1F DUP5 ADD PUSH1 0x5 SHR DUP2 ADD SWAP2 PUSH1 0x20 DUP6 LT PUSH2 0x103A JUMPI JUMPDEST SWAP1 PUSH1 0x1F DUP6 SWAP5 SWAP4 SWAP3 ADD PUSH1 0x5 SHR ADD SWAP1 JUMPDEST DUP2 DUP2 LT PUSH2 0x102B JUMPI POP PUSH2 0xEB5 JUMP JUMPDEST PUSH1 0x0 DUP2 SSTORE DUP5 SWAP4 POP PUSH1 0x1 ADD PUSH2 0x101E JUMP JUMPDEST SWAP1 SWAP2 POP DUP2 SWAP1 PUSH2 0x1010 JUMP JUMPDEST PUSH1 0x40 MLOAD PUSH3 0x461BCD PUSH1 0xE5 SHL DUP2 MSTORE PUSH1 0x20 PUSH1 0x4 DUP3 ADD MSTORE PUSH1 0xE PUSH1 0x24 DUP3 ADD MSTORE PUSH14 0x125B9D985B1A5908185B5BDD5B9D PUSH1 0x92 SHL PUSH1 0x44 DUP3 ADD MSTORE PUSH1 0x64 SWAP1 REVERT JUMPDEST PUSH1 0x40 MLOAD PUSH3 0x461BCD PUSH1 0xE5 SHL DUP2 MSTORE PUSH1 0x20 PUSH1 0x4 DUP3 ADD MSTORE PUSH1 0x10 PUSH1 0x24 DUP3 ADD MSTORE PUSH16 0x125B9D985B1A59081B595C98DA185B9D PUSH1 0x82 SHL PUSH1 0x44 DUP3 ADD MSTORE PUSH1 0x64 SWAP1 REVERT JUMPDEST CALLVALUE PUSH2 0x4BD JUMPI PUSH1 0x20 CALLDATASIZE PUSH1 0x3 NOT ADD SLT PUSH2 0x4BD JUMPI PUSH1 0x4 CALLDATALOAD PUSH2 0x10CE PUSH2 0x1859 JUMP JUMPDEST DUP1 PUSH1 0x0 MSTORE PUSH1 0x3 PUSH1 0x20 MSTORE PUSH1 0x40 PUSH1 0x0 KECCAK256 PUSH2 0x10F3 PUSH1 0x1 DUP1 PUSH1 0xA0 SHL SUB PUSH1 0x2 DUP4 ADD SLOAD AND CALLER EQ PUSH2 0x16F5 JUMP JUMPDEST PUSH1 0x6 DUP2 ADD SWAP1 PUSH1 0xFF DUP3 SLOAD AND SWAP2 PUSH1 0x4 DUP4 LT ISZERO PUSH2 0x407 JUMPI PUSH2 0x1114 PUSH2 0x115B SWAP4 ISZERO PUSH2 0x1734 JUMP JUMPDEST DUP1 SLOAD PUSH1 0xFF NOT AND PUSH1 0x2 OR SWAP1 SSTORE PUSH1 0x1 DUP2 ADD SLOAD PUSH1 0x3 SWAP2 SWAP1 SWAP2 ADD SLOAD SWAP1 PUSH1 0x1 PUSH1 0x1 PUSH1 0xA0 SHL SUB AND PUSH32 0x0 PUSH2 0x187B JUMP JUMPDEST PUSH32 0xF5EC7914F551B0E22D281FAF431BE56BD547434A136FA460D18A3B21664F46FB PUSH1 0x0 DUP1 LOG2 PUSH1 0x1 PUSH1 0x0 SSTORE STOP JUMPDEST CALLVALUE PUSH2 0x4BD JUMPI PUSH1 0x20 CALLDATASIZE PUSH1 0x3 NOT ADD SLT PUSH2 0x4BD JUMPI PUSH1 0x4 CALLDATALOAD PUSH1 0x0 MSTORE PUSH1 0x3 PUSH1 0x20 MSTORE PUSH1 0x40 PUSH1 0x0 KECCAK256 DUP1 SLOAD PUSH1 0x1 DUP1 PUSH1 0xA0 SHL SUB PUSH1 0x1 DUP4 ADD SLOAD AND SWAP2 PUSH1 0x1 DUP1 PUSH1 0xA0 SHL SUB PUSH1 0x2 DUP3 ADD SLOAD AND PUSH1 0x3 DUP3 ADD SLOAD SWAP2 PUSH2 0x1231 PUSH2 0x1226 PUSH1 0x4 DUP4 ADD SLOAD PUSH2 0x11E2 PUSH1 0x5 DUP6 ADD PUSH2 0x1624 JUMP JUMPDEST SWAP1 PUSH1 0xFF PUSH1 0x6 DUP7 ADD SLOAD AND SWAP7 PUSH1 0x8 PUSH1 0x7 DUP8 ADD SLOAD SWAP7 ADD SLOAD SWAP7 PUSH1 0x40 MLOAD SWAP11 DUP12 SWAP11 DUP12 MSTORE PUSH1 0x20 DUP12 ADD MSTORE PUSH1 0x40 DUP11 ADD MSTORE PUSH1 0x60 DUP10 ADD MSTORE PUSH1 0x80 DUP9 ADD MSTORE PUSH2 0x120 PUSH1 0xA0 DUP9 ADD MSTORE PUSH2 0x120 DUP8 ADD SWAP1 PUSH2 0x14F4 JUMP JUMPDEST SWAP4 PUSH1 0xC0 DUP7 ADD SWAP1 PUSH2 0x1535 JUMP JUMPDEST PUSH1 0xE0 DUP5 ADD MSTORE PUSH2 0x100 DUP4 ADD MSTORE SUB SWAP1 RETURN JUMPDEST CALLVALUE PUSH2 0x4BD JUMPI PUSH1 0x20 CALLDATASIZE PUSH1 0x3 NOT ADD SLT PUSH2 0x4BD JUMPI PUSH1 0x1 PUSH1 0x1 PUSH1 0xA0 SHL SUB PUSH2 0x1261 PUSH2 0x1542 JUMP JUMPDEST AND PUSH1 0x0 MSTORE PUSH1 0x4 PUSH1 0x20 MSTORE PUSH1 0x40 PUSH1 0x0 KECCAK256 PUSH1 0x40 MLOAD SWAP1 DUP2 PUSH1 0x20 DUP3 SLOAD SWAP2 DUP3 DUP2 MSTORE ADD SWAP2 PUSH1 0x0 MSTORE PUSH1 0x20 PUSH1 0x0 KECCAK256 SWAP1 PUSH1 0x0 JUMPDEST DUP2 DUP2 LT PUSH2 0x12A1 JUMPI PUSH2 0xCB1 DUP6 PUSH2 0xCA5 DUP2 DUP8 SUB DUP3 PUSH2 0x1603 JUMP JUMPDEST DUP3 SLOAD DUP5 MSTORE PUSH1 0x20 SWAP1 SWAP4 ADD SWAP3 PUSH1 0x1 SWAP3 DUP4 ADD SWAP3 ADD PUSH2 0x128A JUMP JUMPDEST CALLVALUE PUSH2 0x4BD JUMPI PUSH1 0x20 CALLDATASIZE PUSH1 0x3 NOT ADD SLT PUSH2 0x4BD JUMPI PUSH1 0x2 SLOAD PUSH1 0x4 CALLDATALOAD SWAP1 PUSH1 0x1 PUSH1 0x1 PUSH1 0xA0 SHL SUB AND CALLER SUB PUSH2 0x1388 JUMPI PUSH2 0x12E6 PUSH2 0x1859 JUMP JUMPDEST DUP1 PUSH1 0x0 MSTORE PUSH1 0x3 PUSH1 0x20 MSTORE PUSH1 0x6 PUSH1 0x40 PUSH1 0x0 KECCAK256 ADD PUSH1 0xFF DUP2 SLOAD AND PUSH1 0x4 DUP2 LT ISZERO PUSH2 0x407 JUMPI PUSH1 0x1 SUB PUSH2 0x1343 JUMPI DUP1 SLOAD PUSH1 0xFF NOT AND PUSH1 0x3 OR SWAP1 SSTORE PUSH32 0xC3F09464992229143225CB1BF5D1449FE1965EB0B5DB593B8021F83843AF73AA PUSH1 0x0 DUP1 LOG2 PUSH1 0x1 PUSH1 0x0 SSTORE STOP JUMPDEST PUSH1 0x40 MLOAD PUSH3 0x461BCD PUSH1 0xE5 SHL DUP2 MSTORE PUSH1 0x20 PUSH1 0x4 DUP3 ADD MSTORE PUSH1 0x1E PUSH1 0x24 DUP3 ADD MSTORE PUSH32 0x5061796D656E74206D7573742062652061636365707465642066697273740000 PUSH1 0x44 DUP3 ADD MSTORE PUSH1 0x64 SWAP1 REVERT JUMPDEST PUSH1 0x40 MLOAD PUSH3 0x461BCD PUSH1 0xE5 SHL DUP2 MSTORE PUSH1 0x20 PUSH1 0x4 DUP3 ADD MSTORE PUSH1 0x18 PUSH1 0x24 DUP3 ADD MSTORE PUSH32 0x4F6E6C792061646D696E2063616E2063616C6C20746869730000000000000000 PUSH1 0x44 DUP3 ADD MSTORE PUSH1 0x64 SWAP1 REVERT JUMPDEST CALLVALUE PUSH2 0x4BD JUMPI PUSH1 0x20 CALLDATASIZE PUSH1 0x3 NOT ADD SLT PUSH2 0x4BD JUMPI PUSH1 0x1 PUSH1 0x1 PUSH1 0xA0 SHL SUB PUSH2 0x13EE PUSH2 0x1542 JUMP JUMPDEST AND PUSH1 0x0 MSTORE PUSH1 0x5 PUSH1 0x20 MSTORE PUSH2 0x143C PUSH1 0x40 PUSH1 0x0 KECCAK256 PUSH2 0xCB1 PUSH2 0x140B DUP3 PUSH2 0x1624 JUMP JUMPDEST SWAP2 PUSH2 0x144A PUSH2 0x1427 PUSH1 0x2 PUSH2 0x1420 PUSH1 0x1 DUP6 ADD PUSH2 0x1624 JUMP JUMPDEST SWAP4 ADD PUSH2 0x1624 JUMP JUMPDEST SWAP2 PUSH1 0x40 MLOAD SWAP6 DUP7 SWAP6 PUSH1 0x60 DUP8 MSTORE PUSH1 0x60 DUP8 ADD SWAP1 PUSH2 0x14F4 JUMP JUMPDEST SWAP1 DUP6 DUP3 SUB PUSH1 0x20 DUP8 ADD MSTORE PUSH2 0x14F4 JUMP JUMPDEST SWAP1 DUP4 DUP3 SUB PUSH1 0x40 DUP6 ADD MSTORE PUSH2 0x14F4 JUMP JUMPDEST CALLVALUE PUSH2 0x4BD JUMPI PUSH1 0x20 CALLDATASIZE PUSH1 0x3 NOT ADD SLT PUSH2 0x4BD JUMPI PUSH1 0x4 CALLDATALOAD PUSH1 0x0 MSTORE PUSH1 0x3 PUSH1 0x20 MSTORE PUSH1 0x40 PUSH1 0x0 KECCAK256 DUP1 SLOAD PUSH1 0x1 DUP1 PUSH1 0xA0 SHL SUB PUSH1 0x1 DUP4 ADD SLOAD AND SWAP2 PUSH2 0xCB1 PUSH2 0x14E9 PUSH1 0x1 DUP1 PUSH1 0xA0 SHL SUB PUSH1 0x2 DUP5 ADD SLOAD AND PUSH1 0x3 DUP5 ADD SLOAD PUSH1 0x4 DUP6 ADD SLOAD SWAP1 PUSH2 0x14BB PUSH1 0x5 PUSH1 0xFF PUSH1 0x6 DUP10 ADD SLOAD AND SWAP8 ADD PUSH2 0x1624 JUMP JUMPDEST SWAP3 PUSH1 0x40 MLOAD SWAP9 DUP10 SWAP9 DUP10 MSTORE PUSH1 0x20 DUP10 ADD MSTORE PUSH1 0x40 DUP9 ADD MSTORE PUSH1 0x60 DUP8 ADD MSTORE PUSH1 0x80 DUP7 ADD MSTORE PUSH1 0xE0 PUSH1 0xA0 DUP7 ADD MSTORE PUSH1 0xE0 DUP6 ADD SWAP1 PUSH2 0x14F4 JUMP JUMPDEST SWAP2 PUSH1 0xC0 DUP5 ADD SWAP1 PUSH2 0x1535 JUMP JUMPDEST SWAP2 SWAP1 DUP3 MLOAD SWAP3 DUP4 DUP3 MSTORE PUSH1 0x0 JUMPDEST DUP5 DUP2 LT PUSH2 0x1520 JUMPI POP POP DUP3 PUSH1 0x0 PUSH1 0x20 DUP1 SWAP5 SWAP6 DUP5 ADD ADD MSTORE PUSH1 0x1F DUP1 NOT SWAP2 ADD AND ADD ADD SWAP1 JUMP JUMPDEST DUP1 PUSH1 0x20 DUP1 SWAP3 DUP5 ADD ADD MLOAD DUP3 DUP3 DUP7 ADD ADD MSTORE ADD PUSH2 0x14FF JUMP JUMPDEST SWAP1 PUSH1 0x4 DUP3 LT ISZERO PUSH2 0x407 JUMPI MSTORE JUMP JUMPDEST PUSH1 0x4 CALLDATALOAD SWAP1 PUSH1 0x1 PUSH1 0x1 PUSH1 0xA0 SHL SUB DUP3 AND DUP3 SUB PUSH2 0x4BD JUMPI JUMP JUMPDEST PUSH1 0x20 PUSH1 0x40 DUP2 DUP4 ADD SWAP3 DUP3 DUP2 MSTORE DUP5 MLOAD DUP1 SWAP5 MSTORE ADD SWAP3 ADD SWAP1 PUSH1 0x0 JUMPDEST DUP2 DUP2 LT PUSH2 0x157C JUMPI POP POP POP SWAP1 JUMP JUMPDEST DUP3 MLOAD DUP5 MSTORE PUSH1 0x20 SWAP4 DUP5 ADD SWAP4 SWAP1 SWAP3 ADD SWAP2 PUSH1 0x1 ADD PUSH2 0x156F JUMP JUMPDEST SWAP1 PUSH1 0x1 DUP3 DUP2 SHR SWAP3 AND DUP1 ISZERO PUSH2 0x15C2 JUMPI JUMPDEST PUSH1 0x20 DUP4 LT EQ PUSH2 0x15AC JUMPI JUMP JUMPDEST PUSH4 0x4E487B71 PUSH1 0xE0 SHL PUSH1 0x0 MSTORE PUSH1 0x22 PUSH1 0x4 MSTORE PUSH1 0x24 PUSH1 0x0 REVERT JUMPDEST SWAP2 PUSH1 0x7F AND SWAP2 PUSH2 0x15A1 JUMP JUMPDEST PUSH2 0x120 DUP2 ADD SWAP1 DUP2 LT PUSH1 0x1 PUSH1 0x1 PUSH1 0x40 SHL SUB DUP3 GT OR PUSH2 0x9EC JUMPI PUSH1 0x40 MSTORE JUMP JUMPDEST PUSH1 0x80 DUP2 ADD SWAP1 DUP2 LT PUSH1 0x1 PUSH1 0x1 PUSH1 0x40 SHL SUB DUP3 GT OR PUSH2 0x9EC JUMPI PUSH1 0x40 MSTORE JUMP JUMPDEST SWAP1 PUSH1 0x1F DUP1 NOT SWAP2 ADD AND DUP2 ADD SWAP1 DUP2 LT PUSH1 0x1 PUSH1 0x1 PUSH1 0x40 SHL SUB DUP3 GT OR PUSH2 0x9EC JUMPI PUSH1 0x40 MSTORE JUMP JUMPDEST SWAP1 PUSH1 0x40 MLOAD SWAP2 DUP3 PUSH1 0x0 DUP3 SLOAD SWAP3 PUSH2 0x1638 DUP5 PUSH2 0x1592 JUMP JUMPDEST DUP1 DUP5 MSTORE SWAP4 PUSH1 0x1 DUP2 AND SWAP1 DUP2 ISZERO PUSH2 0x16A6 JUMPI POP PUSH1 0x1 EQ PUSH2 0x165F JUMPI JUMPDEST POP PUSH2 0x165D SWAP3 POP SUB DUP4 PUSH2 0x1603 JUMP JUMPDEST JUMP JUMPDEST SWAP1 POP PUSH1 0x0 SWAP3 SWAP2 SWAP3 MSTORE PUSH1 0x20 PUSH1 0x0 KECCAK256 SWAP1 PUSH1 0x0 SWAP2 JUMPDEST DUP2 DUP4 LT PUSH2 0x168A JUMPI POP POP SWAP1 PUSH1 0x20 PUSH2 0x165D SWAP3 DUP3 ADD ADD CODESIZE PUSH2 0x1650 JUMP JUMPDEST PUSH1 0x20 SWAP2 SWAP4 POP DUP1 PUSH1 0x1 SWAP2 SLOAD DUP4 DUP6 DUP10 ADD ADD MSTORE ADD SWAP2 ADD SWAP1 SWAP2 DUP5 SWAP3 PUSH2 0x1671 JUMP JUMPDEST SWAP1 POP PUSH1 0x20 SWAP3 POP PUSH2 0x165D SWAP5 SWAP2 POP PUSH1 0xFF NOT AND DUP3 DUP5 ADD MSTORE ISZERO ISZERO PUSH1 0x5 SHL DUP3 ADD ADD CODESIZE PUSH2 0x1650 JUMP JUMPDEST SWAP2 DUP2 PUSH1 0x1F DUP5 ADD SLT ISZERO PUSH2 0x4BD JUMPI DUP3 CALLDATALOAD SWAP2 PUSH1 0x1 PUSH1 0x1 PUSH1 0x40 SHL SUB DUP4 GT PUSH2 0x4BD JUMPI PUSH1 0x20 DUP4 DUP2 DUP7 ADD SWAP6 ADD ADD GT PUSH2 0x4BD JUMPI JUMP JUMPDEST ISZERO PUSH2 0x16FC JUMPI JUMP JUMPDEST PUSH1 0x40 MLOAD PUSH3 0x461BCD PUSH1 0xE5 SHL DUP2 MSTORE PUSH1 0x20 PUSH1 0x4 DUP3 ADD MSTORE PUSH1 0x10 PUSH1 0x24 DUP3 ADD MSTORE PUSH16 0x139BDD081E5BDD5C881C185E5B595B9D PUSH1 0x82 SHL PUSH1 0x44 DUP3 ADD MSTORE PUSH1 0x64 SWAP1 REVERT JUMPDEST ISZERO PUSH2 0x173B JUMPI JUMP JUMPDEST PUSH1 0x40 MLOAD PUSH3 0x461BCD PUSH1 0xE5 SHL DUP2 MSTORE PUSH1 0x20 PUSH1 0x4 DUP3 ADD MSTORE PUSH1 0x11 PUSH1 0x24 DUP3 ADD MSTORE PUSH17 0x105B1C9958591E481C1C9BD8D95CDCD959 PUSH1 0x7A SHL PUSH1 0x44 DUP3 ADD MSTORE PUSH1 0x64 SWAP1 REVERT JUMPDEST PUSH1 0x0 NOT DUP2 EQ PUSH2 0x41D JUMPI PUSH1 0x1 ADD SWAP1 JUMP JUMPDEST SWAP3 SWAP2 SWAP3 PUSH1 0x1 PUSH1 0x1 PUSH1 0x40 SHL SUB DUP3 GT PUSH2 0x9EC JUMPI PUSH1 0x40 MLOAD SWAP2 PUSH2 0x17AC PUSH1 0x1F DUP3 ADD PUSH1 0x1F NOT AND PUSH1 0x20 ADD DUP5 PUSH2 0x1603 JUMP JUMPDEST DUP3 SWAP5 DUP2 DUP5 MSTORE DUP2 DUP4 ADD GT PUSH2 0x4BD JUMPI DUP3 DUP2 PUSH1 0x20 SWAP4 DUP5 PUSH1 0x0 SWAP7 ADD CALLDATACOPY ADD ADD MSTORE JUMP JUMPDEST DUP1 SLOAD SWAP1 PUSH9 0x10000000000000000 DUP3 LT ISZERO PUSH2 0x9EC JUMPI PUSH1 0x1 DUP3 ADD DUP1 DUP3 SSTORE DUP3 LT ISZERO PUSH2 0x17F7 JUMPI PUSH1 0x0 MSTORE PUSH1 0x20 PUSH1 0x0 KECCAK256 ADD SSTORE JUMP JUMPDEST PUSH4 0x4E487B71 PUSH1 0xE0 SHL PUSH1 0x0 MSTORE PUSH1 0x32 PUSH1 0x4 MSTORE PUSH1 0x24 PUSH1 0x0 REVERT JUMPDEST SWAP1 DUP1 PUSH1 0x20 SWAP4 SWAP3 DUP2 DUP5 MSTORE DUP5 DUP5 ADD CALLDATACOPY PUSH1 0x0 DUP3 DUP3 ADD DUP5 ADD MSTORE PUSH1 0x1F ADD PUSH1 0x1F NOT AND ADD ADD SWAP1 JUMP JUMPDEST PUSH1 0x1 PUSH1 0x1 PUSH1 0x40 SHL SUB DUP2 GT PUSH2 0x9EC JUMPI PUSH1 0x5 SHL PUSH1 0x20 ADD SWAP1 JUMP JUMPDEST DUP1 MLOAD DUP3 LT ISZERO PUSH2 0x17F7 JUMPI PUSH1 0x20 SWAP2 PUSH1 0x5 SHL ADD ADD SWAP1 JUMP JUMPDEST PUSH1 0x2 PUSH1 0x0 SLOAD EQ PUSH2 0x186A JUMPI PUSH1 0x2 PUSH1 0x0 SSTORE JUMP JUMPDEST PUSH4 0x3EE5AEB5 PUSH1 0xE0 SHL PUSH1 0x0 MSTORE PUSH1 0x4 PUSH1 0x0 REVERT JUMPDEST PUSH1 0x40 MLOAD PUSH4 0xA9059CBB PUSH1 0xE0 SHL PUSH1 0x20 DUP3 ADD MSTORE PUSH1 0x1 PUSH1 0x1 PUSH1 0xA0 SHL SUB SWAP1 SWAP3 AND PUSH1 0x24 DUP4 ADD MSTORE PUSH1 0x44 DUP1 DUP4 ADD SWAP4 SWAP1 SWAP4 MSTORE SWAP2 DUP2 MSTORE PUSH2 0x165D SWAP2 PUSH2 0x18B6 PUSH1 0x64 DUP4 PUSH2 0x1603 JUMP JUMPDEST SWAP1 PUSH1 0x0 PUSH1 0x20 SWAP2 DUP3 DUP2 MLOAD SWAP2 ADD DUP3 DUP6 GAS CALL ISZERO PUSH2 0x1911 JUMPI PUSH1 0x0 MLOAD RETURNDATASIZE PUSH2 0x1908 JUMPI POP PUSH1 0x1 PUSH1 0x1 PUSH1 0xA0 SHL SUB DUP2 AND EXTCODESIZE ISZERO JUMPDEST PUSH2 0x18E7 JUMPI POP JUMP JUMPDEST PUSH4 0x5274AFE7 PUSH1 0xE0 SHL PUSH1 0x0 SWAP1 DUP2 MSTORE PUSH1 0x1 PUSH1 0x1 PUSH1 0xA0 SHL SUB SWAP2 SWAP1 SWAP2 AND PUSH1 0x4 MSTORE PUSH1 0x24 SWAP1 REVERT JUMPDEST PUSH1 0x1 EQ ISZERO PUSH2 0x18E0 JUMP JUMPDEST PUSH1 0x40 MLOAD RETURNDATASIZE PUSH1 0x0 DUP3 RETURNDATACOPY RETURNDATASIZE SWAP1 REVERT INVALID LOG2 PUSH5 0x6970667358 0x22 SLT KECCAK256 DUP4 0x2E 0xE6 CREATE2 TSTORE 0xC2 0xB2 SAR PC 0x4E OR JUMPI 0xBB DUP14 0xF8 PREVRANDAO 0xC7 0xC4 0x4E CALL 0xCF BLOCKHASH DUP1 0xBA 0xC 0xDD OR 0xB8 0xF6 MSTORE SWAP10 SWAP12 PUSH5 0x736F6C6343 STOP ADDMOD SHR STOP CALLER "
        },
        "methodIdentifiers": {
          "acceptPaymentWithRate(uint256,uint256)": "e5b185bb",
          "admin()": "f851a440",
          "getAllPayments()": "f8defa3c",
          "getMerchantBankDetails(address)": "6d6a5c5c",
          "getMerchantPaymentIds(address)": "7508cf12",
          "getPayerPaymentIds(address)": "c87ddf6b",
          "getPayment(uint256)": "3280a836",
          "markAsPaid(uint256)": "7021cafe",
          "merchants(address)": "ee14e939",
          "payMerchant(address,uint256,string)": "a647d1d3",
          "payments(uint256)": "87d81789",
          "registerMerchantBankDetails(string,string,string)": "d3a0e907",
          "rejectPayment(uint256)": "8d920b02",
          "stableToken()": "a9d75b2b"
        }
      }
    }
  }
}