{
  "_format": "hh-sol-artifact-1",
  "contractName": "SettlX",
  "sourceName": "contracts/SettlX.sol",
  "abi": [
    {
      "inputs": [
        {
          "internalType": "address",
          "name": "tokenAddress",
          "type": "address"
        }
      ],
      "stateMutability": "nonpayable",
      "type": "constructor"
    },
    {
      "inputs": [],
      "name": "ReentrancyGuardReentrantCall",
      "type": "error"
    },
    {
      "inputs": [
        {
          "internalType": "address",
          "name": "token",
          "type": "address"
        }
      ],
      "name": "SafeERC20FailedOperation",
      "type": "error"
    },
    {
      "anonymous": false,
      "inputs": [
        {
          "indexed": true,
          "internalType": "address",
          "name": "merchant",
          "type": "address"
        },
        {
          "indexed": false,
          "internalType": "string",
          "name": "bankName",
          "type": "string"
        },
        {
          "indexed": false,
          "internalType": "string",
          "name": "accountName",
          "type": "string"
        },
        {
          "indexed": false,
          "internalType": "string",
          "name": "accountNumber",
          "type": "string"
        }
      ],
      "name": "MerchantRegistered",
      "type": "event"
    },
    {
      "anonymous": false,
      "inputs": [
        {
          "indexed": true,
          "internalType": "uint256",
          "name": "id",
          "type": "uint256"
        },
        {
          "indexed": false,
          "internalType": "uint256",
          "name": "lockedRate",
          "type": "uint256"
        }
      ],
      "name": "PaymentAccepted",
      "type": "event"
    },
    {
      "anonymous": false,
      "inputs": [
        {
          "indexed": true,
          "internalType": "uint256",
          "name": "id",
          "type": "uint256"
        },
        {
          "indexed": true,
          "internalType": "address",
          "name": "payer",
          "type": "address"
        },
        {
          "indexed": true,
          "internalType": "address",
          "name": "merchant",
          "type": "address"
        },
        {
          "indexed": false,
          "internalType": "uint256",
          "name": "amount",
          "type": "uint256"
        },
        {
          "indexed": false,
          "internalType": "string",
          "name": "rfce",
          "type": "string"
        }
      ],
      "name": "PaymentCreated",
      "type": "event"
    },
    {
      "anonymous": false,
      "inputs": [
        {
          "indexed": true,
          "internalType": "uint256",
          "name": "id",
          "type": "uint256"
        }
      ],
      "name": "PaymentMarkedAsPaid",
      "type": "event"
    },
    {
      "anonymous": false,
      "inputs": [
        {
          "indexed": true,
          "internalType": "uint256",
          "name": "id",
          "type": "uint256"
        }
      ],
      "name": "PaymentRejected",
      "type": "event"
    },
    {
      "inputs": [
        {
          "internalType": "uint256",
          "name": "paymentId",
          "type": "uint256"
        },
        {
          "internalType": "uint256",
          "name": "rate",
          "type": "uint256"
        }
      ],
      "name": "acceptPaymentWithRate",
      "outputs": [],
      "stateMutability": "nonpayable",
      "type": "function"
    },
    {
      "inputs": [],
      "name": "admin",
      "outputs": [
        {
          "internalType": "address",
          "name": "",
          "type": "address"
        }
      ],
      "stateMutability": "view",
      "type": "function"
    },
    {
      "inputs": [],
      "name": "getAllPayments",
      "outputs": [
        {
          "components": [
            {
              "internalType": "uint256",
              "name": "id",
              "type": "uint256"
            },
            {
              "internalType": "address",
              "name": "payer",
              "type": "address"
            },
            {
              "internalType": "address",
              "name": "merchant",
              "type": "address"
            },
            {
              "internalType": "uint256",
              "name": "amount",
              "type": "uint256"
            },
            {
              "internalType": "uint256",
              "name": "timestamp",
              "type": "uint256"
            },
            {
              "internalType": "string",
              "name": "rfce",
              "type": "string"
            },
            {
              "internalType": "enum SettlX.Status",
              "name": "status",
              "type": "uint8"
            },
            {
              "internalType": "uint256",
              "name": "lockedRate",
              "type": "uint256"
            },
            {
              "internalType": "uint256",
              "name": "rateLockTimestamp",
              "type": "uint256"
            }
          ],
          "internalType": "struct SettlX.Payment[]",
          "name": "",
          "type": "tuple[]"
        },
        {
          "components": [
            {
              "internalType": "string",
              "name": "bankName",
              "type": "string"
            },
            {
              "internalType": "string",
              "name": "accountName",
              "type": "string"
            },
            {
              "internalType": "string",
              "name": "accountNumber",
              "type": "string"
            },
            {
              "internalType": "bool",
              "name": "isRegistered",
              "type": "bool"
            }
          ],
          "internalType": "struct SettlX.MerchantInfo[]",
          "name": "",
          "type": "tuple[]"
        }
      ],
      "stateMutability": "view",
      "type": "function"
    },
    {
      "inputs": [
        {
          "internalType": "address",
          "name": "merchant",
          "type": "address"
        }
      ],
      "name": "getMerchantBankDetails",
      "outputs": [
        {
          "internalType": "string",
          "name": "bankName",
          "type": "string"
        },
        {
          "internalType": "string",
          "name": "accountName",
          "type": "string"
        },
        {
          "internalType": "string",
          "name": "accountNumber",
          "type": "string"
        }
      ],
      "stateMutability": "view",
      "type": "function"
    },
    {
      "inputs": [
        {
          "internalType": "address",
          "name": "merchant",
          "type": "address"
        }
      ],
      "name": "getMerchantPaymentIds",
      "outputs": [
        {
          "internalType": "uint256[]",
          "name": "",
          "type": "uint256[]"
        }
      ],
      "stateMutability": "view",
      "type": "function"
    },
    {
      "inputs": [
        {
          "internalType": "address",
          "name": "payer",
          "type": "address"
        }
      ],
      "name": "getPayerPaymentIds",
      "outputs": [
        {
          "internalType": "uint256[]",
          "name": "",
          "type": "uint256[]"
        }
      ],
      "stateMutability": "view",
      "type": "function"
    },
    {
      "inputs": [
        {
          "internalType": "uint256",
          "name": "paymentId",
          "type": "uint256"
        }
      ],
      "name": "getPayment",
      "outputs": [
        {
          "internalType": "uint256",
          "name": "id",
          "type": "uint256"
        },
        {
          "internalType": "address",
          "name": "payer",
          "type": "address"
        },
        {
          "internalType": "address",
          "name": "merchant",
          "type": "address"
        },
        {
          "internalType": "uint256",
          "name": "amount",
          "type": "uint256"
        },
        {
          "internalType": "uint256",
          "name": "timestamp",
          "type": "uint256"
        },
        {
          "internalType": "string",
          "name": "rfce",
          "type": "string"
        },
        {
          "internalType": "enum SettlX.Status",
          "name": "status",
          "type": "uint8"
        }
      ],
      "stateMutability": "view",
      "type": "function"
    },
    {
      "inputs": [
        {
          "internalType": "uint256",
          "name": "paymentId",
          "type": "uint256"
        }
      ],
      "name": "markAsPaid",
      "outputs": [],
      "stateMutability": "nonpayable",
      "type": "function"
    },
    {
      "inputs": [
        {
          "internalType": "address",
          "name": "",
          "type": "address"
        }
      ],
      "name": "merchants",
      "outputs": [
        {
          "internalType": "string",
          "name": "bankName",
          "type": "string"
        },
        {
          "internalType": "string",
          "name": "accountName",
          "type": "string"
        },
        {
          "internalType": "string",
          "name": "accountNumber",
          "type": "string"
        },
        {
          "internalType": "bool",
          "name": "isRegistered",
          "type": "bool"
        }
      ],
      "stateMutability": "view",
      "type": "function"
    },
    {
      "inputs": [
        {
          "internalType": "address",
          "name": "merchant",
          "type": "address"
        },
        {
          "internalType": "uint256",
          "name": "amount",
          "type": "uint256"
        },
        {
          "internalType": "string",
          "name": "rfce",
          "type": "string"
        }
      ],
      "name": "payMerchant",
      "outputs": [],
      "stateMutability": "nonpayable",
      "type": "function"
    },
    {
      "inputs": [
        {
          "internalType": "uint256",
          "name": "",
          "type": "uint256"
        }
      ],
      "name": "payments",
      "outputs": [
        {
          "internalType": "uint256",
          "name": "id",
          "type": "uint256"
        },
        {
          "internalType": "address",
          "name": "payer",
          "type": "address"
        },
        {
          "internalType": "address",
          "name": "merchant",
          "type": "address"
        },
        {
          "internalType": "uint256",
          "name": "amount",
          "type": "uint256"
        },
        {
          "internalType": "uint256",
          "name": "timestamp",
          "type": "uint256"
        },
        {
          "internalType": "string",
          "name": "rfce",
          "type": "string"
        },
        {
          "internalType": "enum SettlX.Status",
          "name": "status",
          "type": "uint8"
        },
        {
          "internalType": "uint256",
          "name": "lockedRate",
          "type": "uint256"
        },
        {
          "internalType": "uint256",
          "name": "rateLockTimestamp",
          "type": "uint256"
        }
      ],
      "stateMutability": "view",
      "type": "function"
    },
    {
      "inputs": [
        {
          "internalType": "string",
          "name": "bankName",
          "type": "string"
        },
        {
          "internalType": "string",
          "name": "accountName",
          "type": "string"
        },
        {
          "internalType": "string",
          "name": "accountNumber",
          "type": "string"
        }
      ],
      "name": "registerMerchantBankDetails",
      "outputs": [],
      "stateMutability": "nonpayable",
      "type": "function"
    },
    {
      "inputs": [
        {
          "internalType": "uint256",
          "name": "paymentId",
          "type": "uint256"
        }
      ],
      "name": "rejectPayment",
      "outputs": [],
      "stateMutability": "nonpayable",
      "type": "function"
    },
    {
      "inputs": [],
      "name": "stableToken",
      "outputs": [
        {
          "internalType": "contract IERC20",
          "name": "",
          "type": "address"
        }
      ],
      "stateMutability": "view",
      "type": "function"
    }
  ],
  "bytecode": "0x60a0346100d757601f611a4638819003918201601f19168301916001600160401b038311848410176100dc578084926020946040528339810103126100d757516001600160a01b038116908190036100d75760016000556001805580156100a257608052600280546001600160a01b0319163317905560405161195390816100f3823960805181818161064401528181610ce101528181610da501526111370152f35b60405162461bcd60e51b815260206004820152600d60248201526c24b73b30b634b2103a37b5b2b760991b6044820152606490fd5b600080fd5b634e487b7160e01b600052604160045260246000fdfe6080604052600436101561001257600080fd5b60003560e01c80633280a836146114585780636d6a5c5c146113cd5780637021cafe146112b75780637508cf121461124057806387d81789146111875780638d920b02146110b2578063a647d1d314610d10578063a9d75b2b14610ccb578063c87ddf6b14610c44578063d3a0e907146106aa578063e5b185bb1461058b578063ee14e939146104eb578063f851a440146104c25763f8defa3c146100b657600080fd5b346104bd5760003660031901126104bd57600154600019810190811161041d576100df8161182e565b906100ed6040519283611603565b808252601f196100fc8261182e565b0160005b8181106104665750506101128161182e565b906101206040519283611603565b808252601f1961012f8261182e565b0160005b81811061043357505060015b818111156102c1578284604051918291604083016040845281518091526060840190602060608260051b8701019301916000905b82821061021e57505050508281036020840152815180825260208201916020808360051b8301019401926000915b8383106101ae5786860387f35b919395509193602080600192601f198582030186528851906060806102046101f26101e286516080875260808701906114f4565b87870151868203898801526114f4565b604086015185820360408701526114f4565b9301511515910152970193019301909286959492936101a1565b91936001919395965060208091605f198a820301855287519081518152848060a01b03838301511683820152848060a01b03604083015116604082015260608201516060820152608082015160808201526101008061028e60a085015161012060a08601526101208501906114f4565b936102a160c082015160c0860190611535565b60e081015160e08501520151910152960192019201869594939192610173565b80600052600360205260406000209060001981019181831161041d57604051926102ea846115cc565b8154845260018201546001600160a01b0390811660208601526002830154166040850152600382015460608501526004820154608085015261032e60058301611624565b60a085015260ff6006830154169360048510156104075760086103fc936104029660c0840152600781015460e084015201546101008201526103708289611845565b5261037b8188611845565b5082600052600360205260018060a01b03600260406000200154166000526005602052604060002060ff6003604051926103b4846115e8565b6103bd81611624565b84526103cb60018201611624565b60208501526103dc60028201611624565b6040850152015416151560608201526103f58288611845565b5285611845565b50611774565b61013f565b634e487b7160e01b600052602160045260246000fd5b634e487b7160e01b600052601160045260246000fd5b602090604051610442816115e8565b60608152606083820152606060408201526000606082015282828701015201610133565b602090604051610475816115cc565b60008152600083820152600060408201526000606082015260006080820152606060a0820152600060c0820152600060e0820152600061010082015282828701015201610100565b600080fd5b346104bd5760003660031901126104bd576002546040516001600160a01b039091168152602090f35b346104bd5760203660031901126104bd576001600160a01b0361050c611542565b166000526005602052610563604060002061052681611624565b9061057f61053660018301611624565b9161057160ff600361054a60028501611624565b93015416936040519687966080885260808801906114f4565b9086820360208801526114f4565b9084820360408601526114f4565b90151560608301520390f35b346104bd5760403660031901126104bd576004356024356105aa611859565b81600052600360205260406000206105cf60018060a01b0360028301541633146116f5565b600681019160ff8354166004811015610407576105ec9015611734565b8015610676576106686020927f39f916cfa4e8a7f5d298df5a811d42bbbdfa00e81fdc65d937067ee18bfa273294600160ff19825416179055826007820155426008820155600360018060a01b0360025416910154907f000000000000000000000000000000000000000000000000000000000000000061187b565b604051908152a26001600055005b60405162461bcd60e51b815260206004820152600c60248201526b496e76616c6964207261746560a01b6044820152606490fd5b346104bd5760603660031901126104bd576004356001600160401b0381116104bd576106da9036906004016116c8565b906024356001600160401b0381116104bd576106fa9036906004016116c8565b9190926044356001600160401b0381116104bd5761071c9036906004016116c8565b90938215610c0a578015610bcd578115610b885760405161073c816115e8565b610747368587611783565b8152610754368389611783565b9060208101918252610767368589611783565b60408201908152606082019260018452336000526005602052604060002092518051906001600160401b0382116109ec5781906107a48654611592565b601f8111610b35575b50602090601f8311600114610ad057600092610ac5575b50508160011b916000199060031b1c19161783555b51805160018401916001600160401b0382116109ec5781906107fb8454611592565b601f8111610a72575b50602090601f8311600114610a0d57600092610a02575b50508160011b916000199060031b1c19161790555b51805160028301916001600160401b0382116109ec576108508354611592565b601f81116109a4575b50602090601f831160011461090e57936108fe979693836108ee97946003947fb51f26c130a97c91544fc6ea433ce79c9a39499ca08ab1770865db7abf52fe7c9e9f98600092610903575b50508160011b9160001990861b1c19161790555b019051151560ff801983541691161790556108e060405197889760608952606089019161180d565b91868303602088015261180d565b908382036040850152339661180d565b0390a2005b015190508f806108a4565b90601f1983169184600052816000209260005b81811061098c5750846003947fb51f26c130a97c91544fc6ea433ce79c9a39499ca08ab1770865db7abf52fe7c9e9f98946108fe9c9b98946108ee9b9860019510610974575b505050811b0190556108b8565b015160001983881b60f8161c191690558f8080610967565b92936020600181928786015181550195019301610921565b836000526020600020601f840160051c810191602085106109e2575b601f0160051c01905b8181106109d65750610859565b600081556001016109c9565b90915081906109c0565b634e487b7160e01b600052604160045260246000fd5b015190508c8061081b565b60008581528281209350601f198516905b818110610a5a5750908460019594939210610a41575b505050811b019055610830565b015160001960f88460031b161c191690558c8080610a34565b92936020600181928786015181550195019301610a1e565b909150836000526020600020601f840160051c81019160208510610abb575b90601f859493920160051c01905b818110610aac5750610804565b60008155849350600101610a9f565b9091508190610a91565b015190508c806107c4565b60008781528281209350601f198516905b818110610b1d5750908460019594939210610b04575b505050811b0183556107d9565b015160001960f88460031b161c191690558c8080610af7565b92936020600181928786015181550195019301610ae1565b909150856000526020600020601f840160051c81019160208510610b7e575b90601f859493920160051c01905b818110610b6f57506107ad565b60008155849350600101610b62565b9091508190610b54565b60405162461bcd60e51b815260206004820152601760248201527f4163636f756e74206e756d6265722072657175697265640000000000000000006044820152606490fd5b60405162461bcd60e51b81526020600482015260156024820152741058d8dbdd5b9d081b985b59481c995c5d5a5c9959605a1b6044820152606490fd5b60405162461bcd60e51b815260206004820152601260248201527110985b9ac81b985b59481c995c5d5a5c995960721b6044820152606490fd5b346104bd5760203660031901126104bd576001600160a01b03610c65611542565b166000526006602052604060002060405190816020825491828152019160005260206000209060005b818110610cb557610cb185610ca581870382611603565b60405191829182611558565b0390f35b8254845260209093019260019283019201610c8e565b346104bd5760003660031901126104bd576040517f00000000000000000000000000000000000000000000000000000000000000006001600160a01b03168152602090f35b346104bd5760603660031901126104bd57610d29611542565b602435906044356001600160401b0381116104bd57610d4c9036906004016116c8565b9091610d56611859565b6001600160a01b031691821561107a57831561104457600093610dc96040516323b872dd60e01b602082015233602482015230604482015282606482015260648152610da3608482611603565b7f00000000000000000000000000000000000000000000000000000000000000006118b6565b60015491610dd683611774565b60015560405191610de6836115cc565b8383526020830192338452604081018781526060820183815260808301428152610e11368a88611783565b60a0850190815260c085018c815260e086018d815261010087019d8e5260008b81526003602081905260409091209751885599516001880180546001600160a01b03199081166001600160a01b039384161790915596516002890180549098169116179095559251978501979097555160048401559451805191959160058401916001600160401b0382116109ec578190610eac8454611592565b601f8111610ff1575b50602090601f8311600114610f8c57600092610f81575b50508160011b916000199060031b1c19161790555b6006820190519860048a1015610407577ffb8577c305f1cbe25cf638bcfb752fa10897cf75c38e6f3533e4272159dca6ad9560089260009b60ff80198354169116179055516007840155519101558587526004602052610f4484604089206117c9565b3387526006602052610f5984604089206117c9565b610f776040519283928352604060208401523396604084019161180d565b0390a46001815580f35b015190508c80610ecc565b60008581528281209350601f198516905b818110610fd95750908460019594939210610fc0575b505050811b019055610ee1565b015160001960f88460031b161c191690558c8080610fb3565b92936020600181928786015181550195019301610f9d565b909150836000526020600020601f840160051c8101916020851061103a575b90601f859493920160051c01905b81811061102b5750610eb5565b6000815584935060010161101e565b9091508190611010565b60405162461bcd60e51b815260206004820152600e60248201526d125b9d985b1a5908185b5bdd5b9d60921b6044820152606490fd5b60405162461bcd60e51b815260206004820152601060248201526f125b9d985b1a59081b595c98da185b9d60821b6044820152606490fd5b346104bd5760203660031901126104bd576004356110ce611859565b80600052600360205260406000206110f360018060a01b0360028301541633146116f5565b600681019060ff8254169160048310156104075761111461115b9315611734565b805460ff19166002179055600181015460039190910154906001600160a01b03167f000000000000000000000000000000000000000000000000000000000000000061187b565b7ff5ec7914f551b0e22d281faf431be56bd547434a136fa460d18a3b21664f46fb600080a26001600055005b346104bd5760203660031901126104bd5760043560005260036020526040600020805460018060a01b036001830154169160018060a01b0360028201541660038201549161123161122660048301546111e260058501611624565b9060ff6006860154169660086007870154960154966040519a8b9a8b5260208b015260408a01526060890152608088015261012060a08801526101208701906114f4565b9360c0860190611535565b60e08401526101008301520390f35b346104bd5760203660031901126104bd576001600160a01b03611261611542565b166000526004602052604060002060405190816020825491828152019160005260206000209060005b8181106112a157610cb185610ca581870382611603565b825484526020909301926001928301920161128a565b346104bd5760203660031901126104bd57600254600435906001600160a01b03163303611388576112e6611859565b806000526003602052600660406000200160ff81541660048110156104075760010361134357805460ff191660031790557fc3f09464992229143225cb1bf5d1449fe1965eb0b5db593b8021f83843af73aa600080a26001600055005b60405162461bcd60e51b815260206004820152601e60248201527f5061796d656e74206d75737420626520616363657074656420666972737400006044820152606490fd5b60405162461bcd60e51b815260206004820152601860248201527f4f6e6c792061646d696e2063616e2063616c6c207468697300000000000000006044820152606490fd5b346104bd5760203660031901126104bd576001600160a01b036113ee611542565b16600052600560205261143c6040600020610cb161140b82611624565b9161144a611427600261142060018501611624565b9301611624565b916040519586956060875260608701906114f4565b9085820360208701526114f4565b9083820360408501526114f4565b346104bd5760203660031901126104bd5760043560005260036020526040600020805460018060a01b0360018301541691610cb16114e960018060a01b0360028401541660038401546004850154906114bb600560ff6006890154169701611624565b926040519889988952602089015260408801526060870152608086015260e060a086015260e08501906114f4565b9160c0840190611535565b919082519283825260005b848110611520575050826000602080949584010152601f8019910116010190565b806020809284010151828286010152016114ff565b9060048210156104075752565b600435906001600160a01b03821682036104bd57565b602060408183019282815284518094520192019060005b81811061157c5750505090565b825184526020938401939092019160010161156f565b90600182811c921680156115c2575b60208310146115ac57565b634e487b7160e01b600052602260045260246000fd5b91607f16916115a1565b61012081019081106001600160401b038211176109ec57604052565b608081019081106001600160401b038211176109ec57604052565b90601f801991011681019081106001600160401b038211176109ec57604052565b906040519182600082549261163884611592565b80845293600181169081156116a6575060011461165f575b5061165d92500383611603565b565b90506000929192526020600020906000915b81831061168a57505090602061165d9282010138611650565b6020919350806001915483858901015201910190918492611671565b90506020925061165d94915060ff191682840152151560051b82010138611650565b9181601f840112156104bd578235916001600160401b0383116104bd57602083818601950101116104bd57565b156116fc57565b60405162461bcd60e51b815260206004820152601060248201526f139bdd081e5bdd5c881c185e5b595b9d60821b6044820152606490fd5b1561173b57565b60405162461bcd60e51b8152602060048201526011602482015270105b1c9958591e481c1c9bd8d95cdcd959607a1b6044820152606490fd5b600019811461041d5760010190565b9291926001600160401b0382116109ec57604051916117ac601f8201601f191660200184611603565b8294818452818301116104bd578281602093846000960137010152565b805490680100000000000000008210156109ec57600182018082558210156117f75760005260206000200155565b634e487b7160e01b600052603260045260246000fd5b908060209392818452848401376000828201840152601f01601f1916010190565b6001600160401b0381116109ec5760051b60200190565b80518210156117f75760209160051b010190565b60026000541461186a576002600055565b633ee5aeb560e01b60005260046000fd5b60405163a9059cbb60e01b60208201526001600160a01b03909216602483015260448083019390935291815261165d916118b6606483611603565b906000602091828151910182855af115611911576000513d61190857506001600160a01b0381163b155b6118e75750565b635274afe760e01b60009081526001600160a01b0391909116600452602490fd5b600114156118e0565b6040513d6000823e3d90fdfea2646970667358221220b2bc8a7e23ce13b6de6e286a3bc098598d0ed3620fae7cc12a88a54dfed7c6ce64736f6c634300081c0033",
  "linkReferences": {},
  "deployedLinkReferences": {}
}