{
  "_format": "hh-sol-artifact-1",
  "contractName": "SettlX",
  "sourceName": "contracts/SettlX.sol",
  "abi": [
    {
      "inputs": [
        {
          "internalType": "address",
          "name": "tokenAddress",
          "type": "address"
        }
      ],
      "stateMutability": "nonpayable",
      "type": "constructor"
    },
    {
      "inputs": [],
      "name": "ReentrancyGuardReentrantCall",
      "type": "error"
    },
    {
      "inputs": [
        {
          "internalType": "address",
          "name": "token",
          "type": "address"
        }
      ],
      "name": "SafeERC20FailedOperation",
      "type": "error"
    },
    {
      "anonymous": false,
      "inputs": [
        {
          "indexed": true,
          "internalType": "uint256",
          "name": "id",
          "type": "uint256"
        }
      ],
      "name": "PaymentAccepted",
      "type": "event"
    },
    {
      "anonymous": false,
      "inputs": [
        {
          "indexed": true,
          "internalType": "uint256",
          "name": "id",
          "type": "uint256"
        },
        {
          "indexed": true,
          "internalType": "address",
          "name": "payer",
          "type": "address"
        },
        {
          "indexed": true,
          "internalType": "address",
          "name": "merchant",
          "type": "address"
        },
        {
          "indexed": false,
          "internalType": "uint256",
          "name": "amount",
          "type": "uint256"
        },
        {
          "indexed": false,
          "internalType": "string",
          "name": "rfce",
          "type": "string"
        }
      ],
      "name": "PaymentCreated",
      "type": "event"
    },
    {
      "anonymous": false,
      "inputs": [
        {
          "indexed": true,
          "internalType": "uint256",
          "name": "id",
          "type": "uint256"
        }
      ],
      "name": "PaymentRejected",
      "type": "event"
    },
    {
      "inputs": [
        {
          "internalType": "uint256",
          "name": "paymentId",
          "type": "uint256"
        }
      ],
      "name": "acceptPayment",
      "outputs": [],
      "stateMutability": "nonpayable",
      "type": "function"
    },
    {
      "inputs": [
        {
          "internalType": "address",
          "name": "merchant",
          "type": "address"
        }
      ],
      "name": "getMerchantPaymentIds",
      "outputs": [
        {
          "internalType": "uint256[]",
          "name": "",
          "type": "uint256[]"
        }
      ],
      "stateMutability": "view",
      "type": "function"
    },
    {
      "inputs": [
        {
          "internalType": "uint256",
          "name": "paymentId",
          "type": "uint256"
        }
      ],
      "name": "getPayment",
      "outputs": [
        {
          "internalType": "uint256",
          "name": "id",
          "type": "uint256"
        },
        {
          "internalType": "address",
          "name": "payer",
          "type": "address"
        },
        {
          "internalType": "address",
          "name": "merchant",
          "type": "address"
        },
        {
          "internalType": "uint256",
          "name": "amount",
          "type": "uint256"
        },
        {
          "internalType": "uint256",
          "name": "timestamp",
          "type": "uint256"
        },
        {
          "internalType": "string",
          "name": "rfce",
          "type": "string"
        },
        {
          "internalType": "enum SettlX.Status",
          "name": "status",
          "type": "uint8"
        }
      ],
      "stateMutability": "view",
      "type": "function"
    },
    {
      "inputs": [
        {
          "internalType": "address",
          "name": "merchant",
          "type": "address"
        },
        {
          "internalType": "uint256",
          "name": "amount",
          "type": "uint256"
        },
        {
          "internalType": "string",
          "name": "rfce",
          "type": "string"
        }
      ],
      "name": "payMerchant",
      "outputs": [],
      "stateMutability": "nonpayable",
      "type": "function"
    },
    {
      "inputs": [
        {
          "internalType": "uint256",
          "name": "",
          "type": "uint256"
        }
      ],
      "name": "payments",
      "outputs": [
        {
          "internalType": "uint256",
          "name": "id",
          "type": "uint256"
        },
        {
          "internalType": "address",
          "name": "payer",
          "type": "address"
        },
        {
          "internalType": "address",
          "name": "merchant",
          "type": "address"
        },
        {
          "internalType": "uint256",
          "name": "amount",
          "type": "uint256"
        },
        {
          "internalType": "uint256",
          "name": "timestamp",
          "type": "uint256"
        },
        {
          "internalType": "string",
          "name": "rfce",
          "type": "string"
        },
        {
          "internalType": "enum SettlX.Status",
          "name": "status",
          "type": "uint8"
        }
      ],
      "stateMutability": "view",
      "type": "function"
    },
    {
      "inputs": [
        {
          "internalType": "uint256",
          "name": "paymentId",
          "type": "uint256"
        }
      ],
      "name": "rejectPayment",
      "outputs": [],
      "stateMutability": "nonpayable",
      "type": "function"
    },
    {
      "inputs": [],
      "name": "stableToken",
      "outputs": [
        {
          "internalType": "contract IERC20",
          "name": "",
          "type": "address"
        }
      ],
      "stateMutability": "view",
      "type": "function"
    }
  ],
  "bytecode": "0x60a0346100c457601f610c6438819003918201601f19168301916001600160401b038311848410176100c9578084926020946040528339810103126100c457516001600160a01b038116908190036100c457600160005560018055801561008f57608052604051610b8490816100e0823960805181818160eb0152818161016c0152818161024e01526106880152f35b60405162461bcd60e51b815260206004820152600d60248201526c24b73b30b634b2103a37b5b2b760991b6044820152606490fd5b600080fd5b634e487b7160e01b600052604160045260246000fdfe6080604052600436101561001257600080fd5b60003560e01c80633280a836146108045780637508cf121461074a57806387d81789146106d85780638d920b0214610603578063a647d1d31461019b578063a9d75b2b146101565763bf846e041461006957600080fd5b3461015157602036600319011261015157600435610085610a8a565b806000526002602052604060002060028101906100ac60018060a01b038354163314610a0b565b600681019160ff83541690600382101561013b5761010f936100d060039315610a4a565b805460ff1916600117905554910154906001600160a01b03167f0000000000000000000000000000000000000000000000000000000000000000610aac565b7ffde5920b89de65e9175781a9b9a04cdc2724d73d31ac3cd0cdf84bea38aac952600080a26001600055005b634e487b7160e01b600052602160045260246000fd5b600080fd5b34610151576000366003190112610151576040517f00000000000000000000000000000000000000000000000000000000000000006001600160a01b03168152602090f35b34610151576060366003190112610151576101b46108f5565b60243560443567ffffffffffffffff811161015157366023820112156101515780600401359267ffffffffffffffff8411610151576024820191602485369201011161015157610202610a8a565b6001600160a01b03169182156105cb578015610595576102726040516323b872dd60e01b60208201523360248201523060448201528260648201526064815261024c608482610945565b7f0000000000000000000000000000000000000000000000000000000000000000610ae7565b60015490600019821461057f57600182016001556040519460e0860186811067ffffffffffffffff821117610569576040528286526020860193338552604087019486865260608801908482526080890198428a526000998a93601f19601f88011699604051946102e660208d0187610945565b88865288886020880137858901602090810188905260a0860196875260c086018881528c895260029182905260409098209551865590516001860180546001600160a01b03199081166001600160a01b039384161790915592519186018054909316911617905551600383015551600482015590518051909190600582019067ffffffffffffffff81116105555761037e825461090b565b601f811161050b575b5060208c601f83116001146104a2579060069583610497575b50508160011b916000199060031b1c19161790555b01905160038110156104835760ff801983541691161790558587526003602052604087208054906801000000000000000082101561046f576001820180825582101561045b5792808993876060947ffb8577c305f1cbe25cf638bcfb752fa10897cf75c38e6f3533e4272159dca6ad9897875260208720015560405195865260406020870152816040870152838601378301015260608133958101030190a46001815580f35b634e487b7160e01b89526032600452602489fd5b634e487b7160e01b89526041600452602489fd5b634e487b7160e01b89526021600452602489fd5b015190508d806103a0565b91929394601f198416858452828420935b8181106104f35750916001939185600698979694106104da575b505050811b0190556103b5565b015160001960f88460031b161c191690558d80806104cd565b929360206001819287860151815501950193016104b3565b828d5260208d20601f830160051c8101916020841061054b575b601f0160051c01908d905b82811061053e575050610387565b6001918155018d90610530565b9091508190610525565b634e487b7160e01b8c52604160045260248cfd5b634e487b7160e01b600052604160045260246000fd5b634e487b7160e01b600052601160045260246000fd5b60405162461bcd60e51b815260206004820152600e60248201526d125b9d985b1a5908185b5bdd5b9d60921b6044820152606490fd5b60405162461bcd60e51b815260206004820152601060248201526f125b9d985b1a59081b595c98da185b9d60821b6044820152606490fd5b346101515760203660031901126101515760043561061f610a8a565b806000526002602052604060002061064460018060a01b036002830154163314610a0b565b600681019060ff82541691600383101561013b576106656106ac9315610a4a565b805460ff19166002179055600181015460039190910154906001600160a01b03167f0000000000000000000000000000000000000000000000000000000000000000610aac565b7ff5ec7914f551b0e22d281faf431be56bd547434a136fa460d18a3b21664f46fb600080a26001600055005b346101515760203660031901126101515760043560005260026020526040600020805461074660018060a01b036001840154169260018060a01b0360028201541690600381015460048201549060ff600661073560058601610967565b94015416936040519788978861086d565b0390f35b34610151576020366003190112610151576001600160a01b0361076b6108f5565b16600052600360205260406000206040518060208354918281520190819360005260206000209060005b8181106107ee57505050816107ab910382610945565b6040519182916020830190602084525180915260408301919060005b8181106107d5575050500390f35b82518452859450602093840193909201916001016107c7565b8254845260209093019260019283019201610795565b346101515760203660031901126101515760043560005260026020526040600020805461074660018060a01b036001840154169260018060a01b036002820154166003820154600483015490610864600560ff6006870154169501610967565b92604051978897885b9081526001600160a01b039182166020820152911660408201526060810191909152608081019190915260e060a0820181905282519082018190529093929160005b8281106108de575050806000610100809387010152601f801991011684010192600382101561013b5760c00152565b8060208092840101516101008289010152016108af565b600435906001600160a01b038216820361015157565b90600182811c9216801561093b575b602083101461092557565b634e487b7160e01b600052602260045260246000fd5b91607f169161091a565b90601f8019910116810190811067ffffffffffffffff82111761056957604052565b906040519182600082549261097b8461090b565b80845293600181169081156109e957506001146109a2575b506109a092500383610945565b565b90506000929192526020600020906000915b8183106109cd5750509060206109a09282010138610993565b60209193508060019154838589010152019101909184926109b4565b9050602092506109a094915060ff191682840152151560051b82010138610993565b15610a1257565b60405162461bcd60e51b815260206004820152601060248201526f139bdd081e5bdd5c881c185e5b595b9d60821b6044820152606490fd5b15610a5157565b60405162461bcd60e51b8152602060048201526011602482015270105b1c9958591e481c1c9bd8d95cdcd959607a1b6044820152606490fd5b600260005414610a9b576002600055565b633ee5aeb560e01b60005260046000fd5b60405163a9059cbb60e01b60208201526001600160a01b0390921660248301526044808301939093529181526109a091610ae7606483610945565b906000602091828151910182855af115610b42576000513d610b3957506001600160a01b0381163b155b610b185750565b635274afe760e01b60009081526001600160a01b0391909116600452602490fd5b60011415610b11565b6040513d6000823e3d90fdfea2646970667358221220d24e8769ffbd2d6431ab9d550c364ea4e567524b533d089ab6d9ace6b449847e64736f6c634300081c0033",
  "linkReferences": {},
  "deployedLinkReferences": {}
}