{
  "contracts/SettlX.sol": {
    "SettlX": {
      "abi": [
        {
          "inputs": [
            {
              "internalType": "address",
              "name": "tokenAddress",
              "type": "address"
            }
          ],
          "stateMutability": "nonpayable",
          "type": "constructor"
        },
        {
          "inputs": [],
          "name": "ReentrancyGuardReentrantCall",
          "type": "error"
        },
        {
          "inputs": [
            {
              "internalType": "address",
              "name": "token",
              "type": "address"
            }
          ],
          "name": "SafeERC20FailedOperation",
          "type": "error"
        },
        {
          "anonymous": false,
          "inputs": [
            {
              "indexed": true,
              "internalType": "uint256",
              "name": "id",
              "type": "uint256"
            }
          ],
          "name": "PaymentAccepted",
          "type": "event"
        },
        {
          "anonymous": false,
          "inputs": [
            {
              "indexed": true,
              "internalType": "uint256",
              "name": "id",
              "type": "uint256"
            },
            {
              "indexed": true,
              "internalType": "address",
              "name": "payer",
              "type": "address"
            },
            {
              "indexed": true,
              "internalType": "address",
              "name": "merchant",
              "type": "address"
            },
            {
              "indexed": false,
              "internalType": "uint256",
              "name": "amount",
              "type": "uint256"
            },
            {
              "indexed": false,
              "internalType": "string",
              "name": "rfce",
              "type": "string"
            }
          ],
          "name": "PaymentCreated",
          "type": "event"
        },
        {
          "anonymous": false,
          "inputs": [
            {
              "indexed": true,
              "internalType": "uint256",
              "name": "id",
              "type": "uint256"
            }
          ],
          "name": "PaymentRejected",
          "type": "event"
        },
        {
          "inputs": [
            {
              "internalType": "uint256",
              "name": "paymentId",
              "type": "uint256"
            }
          ],
          "name": "acceptPayment",
          "outputs": [],
          "stateMutability": "nonpayable",
          "type": "function"
        },
        {
          "inputs": [
            {
              "internalType": "address",
              "name": "merchant",
              "type": "address"
            }
          ],
          "name": "getMerchantPaymentIds",
          "outputs": [
            {
              "internalType": "uint256[]",
              "name": "",
              "type": "uint256[]"
            }
          ],
          "stateMutability": "view",
          "type": "function"
        },
        {
          "inputs": [
            {
              "internalType": "uint256",
              "name": "paymentId",
              "type": "uint256"
            }
          ],
          "name": "getPayment",
          "outputs": [
            {
              "internalType": "uint256",
              "name": "id",
              "type": "uint256"
            },
            {
              "internalType": "address",
              "name": "payer",
              "type": "address"
            },
            {
              "internalType": "address",
              "name": "merchant",
              "type": "address"
            },
            {
              "internalType": "uint256",
              "name": "amount",
              "type": "uint256"
            },
            {
              "internalType": "uint256",
              "name": "timestamp",
              "type": "uint256"
            },
            {
              "internalType": "string",
              "name": "rfce",
              "type": "string"
            },
            {
              "internalType": "enum SettlX.Status",
              "name": "status",
              "type": "uint8"
            }
          ],
          "stateMutability": "view",
          "type": "function"
        },
        {
          "inputs": [
            {
              "internalType": "address",
              "name": "merchant",
              "type": "address"
            },
            {
              "internalType": "uint256",
              "name": "amount",
              "type": "uint256"
            },
            {
              "internalType": "string",
              "name": "rfce",
              "type": "string"
            }
          ],
          "name": "payMerchant",
          "outputs": [],
          "stateMutability": "nonpayable",
          "type": "function"
        },
        {
          "inputs": [
            {
              "internalType": "uint256",
              "name": "",
              "type": "uint256"
            }
          ],
          "name": "payments",
          "outputs": [
            {
              "internalType": "uint256",
              "name": "id",
              "type": "uint256"
            },
            {
              "internalType": "address",
              "name": "payer",
              "type": "address"
            },
            {
              "internalType": "address",
              "name": "merchant",
              "type": "address"
            },
            {
              "internalType": "uint256",
              "name": "amount",
              "type": "uint256"
            },
            {
              "internalType": "uint256",
              "name": "timestamp",
              "type": "uint256"
            },
            {
              "internalType": "string",
              "name": "rfce",
              "type": "string"
            },
            {
              "internalType": "enum SettlX.Status",
              "name": "status",
              "type": "uint8"
            }
          ],
          "stateMutability": "view",
          "type": "function"
        },
        {
          "inputs": [
            {
              "internalType": "uint256",
              "name": "paymentId",
              "type": "uint256"
            }
          ],
          "name": "rejectPayment",
          "outputs": [],
          "stateMutability": "nonpayable",
          "type": "function"
        },
        {
          "inputs": [],
          "name": "stableToken",
          "outputs": [
            {
              "internalType": "contract IERC20",
              "name": "",
              "type": "address"
            }
          ],
          "stateMutability": "view",
          "type": "function"
        }
      ],
      "evm": {
        "bytecode": {
          "linkReferences": {},
          "object": "60a0346100c457601f610c6438819003918201601f19168301916001600160401b038311848410176100c9578084926020946040528339810103126100c457516001600160a01b038116908190036100c457600160005560018055801561008f57608052604051610b8490816100e0823960805181818160eb0152818161016c0152818161024e01526106880152f35b60405162461bcd60e51b815260206004820152600d60248201526c24b73b30b634b2103a37b5b2b760991b6044820152606490fd5b600080fd5b634e487b7160e01b600052604160045260246000fdfe6080604052600436101561001257600080fd5b60003560e01c80633280a836146108045780637508cf121461074a57806387d81789146106d85780638d920b0214610603578063a647d1d31461019b578063a9d75b2b146101565763bf846e041461006957600080fd5b3461015157602036600319011261015157600435610085610a8a565b806000526002602052604060002060028101906100ac60018060a01b038354163314610a0b565b600681019160ff83541690600382101561013b5761010f936100d060039315610a4a565b805460ff1916600117905554910154906001600160a01b03167f0000000000000000000000000000000000000000000000000000000000000000610aac565b7ffde5920b89de65e9175781a9b9a04cdc2724d73d31ac3cd0cdf84bea38aac952600080a26001600055005b634e487b7160e01b600052602160045260246000fd5b600080fd5b34610151576000366003190112610151576040517f00000000000000000000000000000000000000000000000000000000000000006001600160a01b03168152602090f35b34610151576060366003190112610151576101b46108f5565b60243560443567ffffffffffffffff811161015157366023820112156101515780600401359267ffffffffffffffff8411610151576024820191602485369201011161015157610202610a8a565b6001600160a01b03169182156105cb578015610595576102726040516323b872dd60e01b60208201523360248201523060448201528260648201526064815261024c608482610945565b7f0000000000000000000000000000000000000000000000000000000000000000610ae7565b60015490600019821461057f57600182016001556040519460e0860186811067ffffffffffffffff821117610569576040528286526020860193338552604087019486865260608801908482526080890198428a526000998a93601f19601f88011699604051946102e660208d0187610945565b88865288886020880137858901602090810188905260a0860196875260c086018881528c895260029182905260409098209551865590516001860180546001600160a01b03199081166001600160a01b039384161790915592519186018054909316911617905551600383015551600482015590518051909190600582019067ffffffffffffffff81116105555761037e825461090b565b601f811161050b575b5060208c601f83116001146104a2579060069583610497575b50508160011b916000199060031b1c19161790555b01905160038110156104835760ff801983541691161790558587526003602052604087208054906801000000000000000082101561046f576001820180825582101561045b5792808993876060947ffb8577c305f1cbe25cf638bcfb752fa10897cf75c38e6f3533e4272159dca6ad9897875260208720015560405195865260406020870152816040870152838601378301015260608133958101030190a46001815580f35b634e487b7160e01b89526032600452602489fd5b634e487b7160e01b89526041600452602489fd5b634e487b7160e01b89526021600452602489fd5b015190508d806103a0565b91929394601f198416858452828420935b8181106104f35750916001939185600698979694106104da575b505050811b0190556103b5565b015160001960f88460031b161c191690558d80806104cd565b929360206001819287860151815501950193016104b3565b828d5260208d20601f830160051c8101916020841061054b575b601f0160051c01908d905b82811061053e575050610387565b6001918155018d90610530565b9091508190610525565b634e487b7160e01b8c52604160045260248cfd5b634e487b7160e01b600052604160045260246000fd5b634e487b7160e01b600052601160045260246000fd5b60405162461bcd60e51b815260206004820152600e60248201526d125b9d985b1a5908185b5bdd5b9d60921b6044820152606490fd5b60405162461bcd60e51b815260206004820152601060248201526f125b9d985b1a59081b595c98da185b9d60821b6044820152606490fd5b346101515760203660031901126101515760043561061f610a8a565b806000526002602052604060002061064460018060a01b036002830154163314610a0b565b600681019060ff82541691600383101561013b576106656106ac9315610a4a565b805460ff19166002179055600181015460039190910154906001600160a01b03167f0000000000000000000000000000000000000000000000000000000000000000610aac565b7ff5ec7914f551b0e22d281faf431be56bd547434a136fa460d18a3b21664f46fb600080a26001600055005b346101515760203660031901126101515760043560005260026020526040600020805461074660018060a01b036001840154169260018060a01b0360028201541690600381015460048201549060ff600661073560058601610967565b94015416936040519788978861086d565b0390f35b34610151576020366003190112610151576001600160a01b0361076b6108f5565b16600052600360205260406000206040518060208354918281520190819360005260206000209060005b8181106107ee57505050816107ab910382610945565b6040519182916020830190602084525180915260408301919060005b8181106107d5575050500390f35b82518452859450602093840193909201916001016107c7565b8254845260209093019260019283019201610795565b346101515760203660031901126101515760043560005260026020526040600020805461074660018060a01b036001840154169260018060a01b036002820154166003820154600483015490610864600560ff6006870154169501610967565b92604051978897885b9081526001600160a01b039182166020820152911660408201526060810191909152608081019190915260e060a0820181905282519082018190529093929160005b8281106108de575050806000610100809387010152601f801991011684010192600382101561013b5760c00152565b8060208092840101516101008289010152016108af565b600435906001600160a01b038216820361015157565b90600182811c9216801561093b575b602083101461092557565b634e487b7160e01b600052602260045260246000fd5b91607f169161091a565b90601f8019910116810190811067ffffffffffffffff82111761056957604052565b906040519182600082549261097b8461090b565b80845293600181169081156109e957506001146109a2575b506109a092500383610945565b565b90506000929192526020600020906000915b8183106109cd5750509060206109a09282010138610993565b60209193508060019154838589010152019101909184926109b4565b9050602092506109a094915060ff191682840152151560051b82010138610993565b15610a1257565b60405162461bcd60e51b815260206004820152601060248201526f139bdd081e5bdd5c881c185e5b595b9d60821b6044820152606490fd5b15610a5157565b60405162461bcd60e51b8152602060048201526011602482015270105b1c9958591e481c1c9bd8d95cdcd959607a1b6044820152606490fd5b600260005414610a9b576002600055565b633ee5aeb560e01b60005260046000fd5b60405163a9059cbb60e01b60208201526001600160a01b0390921660248301526044808301939093529181526109a091610ae7606483610945565b906000602091828151910182855af115610b42576000513d610b3957506001600160a01b0381163b155b610b185750565b635274afe760e01b60009081526001600160a01b0391909116600452602490fd5b60011415610b11565b6040513d6000823e3d90fdfea2646970667358221220d24e8769ffbd2d6431ab9d550c364ea4e567524b533d089ab6d9ace6b449847e64736f6c634300081c0033",
          "opcodes": "PUSH1 0xA0 CALLVALUE PUSH2 0xC4 JUMPI PUSH1 0x1F PUSH2 0xC64 CODESIZE DUP2 SWAP1 SUB SWAP2 DUP3 ADD PUSH1 0x1F NOT AND DUP4 ADD SWAP2 PUSH1 0x1 PUSH1 0x1 PUSH1 0x40 SHL SUB DUP4 GT DUP5 DUP5 LT OR PUSH2 0xC9 JUMPI DUP1 DUP5 SWAP3 PUSH1 0x20 SWAP5 PUSH1 0x40 MSTORE DUP4 CODECOPY DUP2 ADD SUB SLT PUSH2 0xC4 JUMPI MLOAD PUSH1 0x1 PUSH1 0x1 PUSH1 0xA0 SHL SUB DUP2 AND SWAP1 DUP2 SWAP1 SUB PUSH2 0xC4 JUMPI PUSH1 0x1 PUSH1 0x0 SSTORE PUSH1 0x1 DUP1 SSTORE DUP1 ISZERO PUSH2 0x8F JUMPI PUSH1 0x80 MSTORE PUSH1 0x40 MLOAD PUSH2 0xB84 SWAP1 DUP2 PUSH2 0xE0 DUP3 CODECOPY PUSH1 0x80 MLOAD DUP2 DUP2 DUP2 PUSH1 0xEB ADD MSTORE DUP2 DUP2 PUSH2 0x16C ADD MSTORE DUP2 DUP2 PUSH2 0x24E ADD MSTORE PUSH2 0x688 ADD MSTORE RETURN JUMPDEST PUSH1 0x40 MLOAD PUSH3 0x461BCD PUSH1 0xE5 SHL DUP2 MSTORE PUSH1 0x20 PUSH1 0x4 DUP3 ADD MSTORE PUSH1 0xD PUSH1 0x24 DUP3 ADD MSTORE PUSH13 0x24B73B30B634B2103A37B5B2B7 PUSH1 0x99 SHL PUSH1 0x44 DUP3 ADD MSTORE PUSH1 0x64 SWAP1 REVERT JUMPDEST PUSH1 0x0 DUP1 REVERT JUMPDEST PUSH4 0x4E487B71 PUSH1 0xE0 SHL PUSH1 0x0 MSTORE PUSH1 0x41 PUSH1 0x4 MSTORE PUSH1 0x24 PUSH1 0x0 REVERT INVALID PUSH1 0x80 PUSH1 0x40 MSTORE PUSH1 0x4 CALLDATASIZE LT ISZERO PUSH2 0x12 JUMPI PUSH1 0x0 DUP1 REVERT JUMPDEST PUSH1 0x0 CALLDATALOAD PUSH1 0xE0 SHR DUP1 PUSH4 0x3280A836 EQ PUSH2 0x804 JUMPI DUP1 PUSH4 0x7508CF12 EQ PUSH2 0x74A JUMPI DUP1 PUSH4 0x87D81789 EQ PUSH2 0x6D8 JUMPI DUP1 PUSH4 0x8D920B02 EQ PUSH2 0x603 JUMPI DUP1 PUSH4 0xA647D1D3 EQ PUSH2 0x19B JUMPI DUP1 PUSH4 0xA9D75B2B EQ PUSH2 0x156 JUMPI PUSH4 0xBF846E04 EQ PUSH2 0x69 JUMPI PUSH1 0x0 DUP1 REVERT JUMPDEST CALLVALUE PUSH2 0x151 JUMPI PUSH1 0x20 CALLDATASIZE PUSH1 0x3 NOT ADD SLT PUSH2 0x151 JUMPI PUSH1 0x4 CALLDATALOAD PUSH2 0x85 PUSH2 0xA8A JUMP JUMPDEST DUP1 PUSH1 0x0 MSTORE PUSH1 0x2 PUSH1 0x20 MSTORE PUSH1 0x40 PUSH1 0x0 KECCAK256 PUSH1 0x2 DUP2 ADD SWAP1 PUSH2 0xAC PUSH1 0x1 DUP1 PUSH1 0xA0 SHL SUB DUP4 SLOAD AND CALLER EQ PUSH2 0xA0B JUMP JUMPDEST PUSH1 0x6 DUP2 ADD SWAP2 PUSH1 0xFF DUP4 SLOAD AND SWAP1 PUSH1 0x3 DUP3 LT ISZERO PUSH2 0x13B JUMPI PUSH2 0x10F SWAP4 PUSH2 0xD0 PUSH1 0x3 SWAP4 ISZERO PUSH2 0xA4A JUMP JUMPDEST DUP1 SLOAD PUSH1 0xFF NOT AND PUSH1 0x1 OR SWAP1 SSTORE SLOAD SWAP2 ADD SLOAD SWAP1 PUSH1 0x1 PUSH1 0x1 PUSH1 0xA0 SHL SUB AND PUSH32 0x0 PUSH2 0xAAC JUMP JUMPDEST PUSH32 0xFDE5920B89DE65E9175781A9B9A04CDC2724D73D31AC3CD0CDF84BEA38AAC952 PUSH1 0x0 DUP1 LOG2 PUSH1 0x1 PUSH1 0x0 SSTORE STOP JUMPDEST PUSH4 0x4E487B71 PUSH1 0xE0 SHL PUSH1 0x0 MSTORE PUSH1 0x21 PUSH1 0x4 MSTORE PUSH1 0x24 PUSH1 0x0 REVERT JUMPDEST PUSH1 0x0 DUP1 REVERT JUMPDEST CALLVALUE PUSH2 0x151 JUMPI PUSH1 0x0 CALLDATASIZE PUSH1 0x3 NOT ADD SLT PUSH2 0x151 JUMPI PUSH1 0x40 MLOAD PUSH32 0x0 PUSH1 0x1 PUSH1 0x1 PUSH1 0xA0 SHL SUB AND DUP2 MSTORE PUSH1 0x20 SWAP1 RETURN JUMPDEST CALLVALUE PUSH2 0x151 JUMPI PUSH1 0x60 CALLDATASIZE PUSH1 0x3 NOT ADD SLT PUSH2 0x151 JUMPI PUSH2 0x1B4 PUSH2 0x8F5 JUMP JUMPDEST PUSH1 0x24 CALLDATALOAD PUSH1 0x44 CALLDATALOAD PUSH8 0xFFFFFFFFFFFFFFFF DUP2 GT PUSH2 0x151 JUMPI CALLDATASIZE PUSH1 0x23 DUP3 ADD SLT ISZERO PUSH2 0x151 JUMPI DUP1 PUSH1 0x4 ADD CALLDATALOAD SWAP3 PUSH8 0xFFFFFFFFFFFFFFFF DUP5 GT PUSH2 0x151 JUMPI PUSH1 0x24 DUP3 ADD SWAP2 PUSH1 0x24 DUP6 CALLDATASIZE SWAP3 ADD ADD GT PUSH2 0x151 JUMPI PUSH2 0x202 PUSH2 0xA8A JUMP JUMPDEST PUSH1 0x1 PUSH1 0x1 PUSH1 0xA0 SHL SUB AND SWAP2 DUP3 ISZERO PUSH2 0x5CB JUMPI DUP1 ISZERO PUSH2 0x595 JUMPI PUSH2 0x272 PUSH1 0x40 MLOAD PUSH4 0x23B872DD PUSH1 0xE0 SHL PUSH1 0x20 DUP3 ADD MSTORE CALLER PUSH1 0x24 DUP3 ADD MSTORE ADDRESS PUSH1 0x44 DUP3 ADD MSTORE DUP3 PUSH1 0x64 DUP3 ADD MSTORE PUSH1 0x64 DUP2 MSTORE PUSH2 0x24C PUSH1 0x84 DUP3 PUSH2 0x945 JUMP JUMPDEST PUSH32 0x0 PUSH2 0xAE7 JUMP JUMPDEST PUSH1 0x1 SLOAD SWAP1 PUSH1 0x0 NOT DUP3 EQ PUSH2 0x57F JUMPI PUSH1 0x1 DUP3 ADD PUSH1 0x1 SSTORE PUSH1 0x40 MLOAD SWAP5 PUSH1 0xE0 DUP7 ADD DUP7 DUP2 LT PUSH8 0xFFFFFFFFFFFFFFFF DUP3 GT OR PUSH2 0x569 JUMPI PUSH1 0x40 MSTORE DUP3 DUP7 MSTORE PUSH1 0x20 DUP7 ADD SWAP4 CALLER DUP6 MSTORE PUSH1 0x40 DUP8 ADD SWAP5 DUP7 DUP7 MSTORE PUSH1 0x60 DUP9 ADD SWAP1 DUP5 DUP3 MSTORE PUSH1 0x80 DUP10 ADD SWAP9 TIMESTAMP DUP11 MSTORE PUSH1 0x0 SWAP10 DUP11 SWAP4 PUSH1 0x1F NOT PUSH1 0x1F DUP9 ADD AND SWAP10 PUSH1 0x40 MLOAD SWAP5 PUSH2 0x2E6 PUSH1 0x20 DUP14 ADD DUP8 PUSH2 0x945 JUMP JUMPDEST DUP9 DUP7 MSTORE DUP9 DUP9 PUSH1 0x20 DUP9 ADD CALLDATACOPY DUP6 DUP10 ADD PUSH1 0x20 SWAP1 DUP2 ADD DUP9 SWAP1 MSTORE PUSH1 0xA0 DUP7 ADD SWAP7 DUP8 MSTORE PUSH1 0xC0 DUP7 ADD DUP9 DUP2 MSTORE DUP13 DUP10 MSTORE PUSH1 0x2 SWAP2 DUP3 SWAP1 MSTORE PUSH1 0x40 SWAP1 SWAP9 KECCAK256 SWAP6 MLOAD DUP7 SSTORE SWAP1 MLOAD PUSH1 0x1 DUP7 ADD DUP1 SLOAD PUSH1 0x1 PUSH1 0x1 PUSH1 0xA0 SHL SUB NOT SWAP1 DUP2 AND PUSH1 0x1 PUSH1 0x1 PUSH1 0xA0 SHL SUB SWAP4 DUP5 AND OR SWAP1 SWAP2 SSTORE SWAP3 MLOAD SWAP2 DUP7 ADD DUP1 SLOAD SWAP1 SWAP4 AND SWAP2 AND OR SWAP1 SSTORE MLOAD PUSH1 0x3 DUP4 ADD SSTORE MLOAD PUSH1 0x4 DUP3 ADD SSTORE SWAP1 MLOAD DUP1 MLOAD SWAP1 SWAP2 SWAP1 PUSH1 0x5 DUP3 ADD SWAP1 PUSH8 0xFFFFFFFFFFFFFFFF DUP2 GT PUSH2 0x555 JUMPI PUSH2 0x37E DUP3 SLOAD PUSH2 0x90B JUMP JUMPDEST PUSH1 0x1F DUP2 GT PUSH2 0x50B JUMPI JUMPDEST POP PUSH1 0x20 DUP13 PUSH1 0x1F DUP4 GT PUSH1 0x1 EQ PUSH2 0x4A2 JUMPI SWAP1 PUSH1 0x6 SWAP6 DUP4 PUSH2 0x497 JUMPI JUMPDEST POP POP DUP2 PUSH1 0x1 SHL SWAP2 PUSH1 0x0 NOT SWAP1 PUSH1 0x3 SHL SHR NOT AND OR SWAP1 SSTORE JUMPDEST ADD SWAP1 MLOAD PUSH1 0x3 DUP2 LT ISZERO PUSH2 0x483 JUMPI PUSH1 0xFF DUP1 NOT DUP4 SLOAD AND SWAP2 AND OR SWAP1 SSTORE DUP6 DUP8 MSTORE PUSH1 0x3 PUSH1 0x20 MSTORE PUSH1 0x40 DUP8 KECCAK256 DUP1 SLOAD SWAP1 PUSH9 0x10000000000000000 DUP3 LT ISZERO PUSH2 0x46F JUMPI PUSH1 0x1 DUP3 ADD DUP1 DUP3 SSTORE DUP3 LT ISZERO PUSH2 0x45B JUMPI SWAP3 DUP1 DUP10 SWAP4 DUP8 PUSH1 0x60 SWAP5 PUSH32 0xFB8577C305F1CBE25CF638BCFB752FA10897CF75C38E6F3533E4272159DCA6AD SWAP9 SWAP8 DUP8 MSTORE PUSH1 0x20 DUP8 KECCAK256 ADD SSTORE PUSH1 0x40 MLOAD SWAP6 DUP7 MSTORE PUSH1 0x40 PUSH1 0x20 DUP8 ADD MSTORE DUP2 PUSH1 0x40 DUP8 ADD MSTORE DUP4 DUP7 ADD CALLDATACOPY DUP4 ADD ADD MSTORE PUSH1 0x60 DUP2 CALLER SWAP6 DUP2 ADD SUB ADD SWAP1 LOG4 PUSH1 0x1 DUP2 SSTORE DUP1 RETURN JUMPDEST PUSH4 0x4E487B71 PUSH1 0xE0 SHL DUP10 MSTORE PUSH1 0x32 PUSH1 0x4 MSTORE PUSH1 0x24 DUP10 REVERT JUMPDEST PUSH4 0x4E487B71 PUSH1 0xE0 SHL DUP10 MSTORE PUSH1 0x41 PUSH1 0x4 MSTORE PUSH1 0x24 DUP10 REVERT JUMPDEST PUSH4 0x4E487B71 PUSH1 0xE0 SHL DUP10 MSTORE PUSH1 0x21 PUSH1 0x4 MSTORE PUSH1 0x24 DUP10 REVERT JUMPDEST ADD MLOAD SWAP1 POP DUP14 DUP1 PUSH2 0x3A0 JUMP JUMPDEST SWAP2 SWAP3 SWAP4 SWAP5 PUSH1 0x1F NOT DUP5 AND DUP6 DUP5 MSTORE DUP3 DUP5 KECCAK256 SWAP4 JUMPDEST DUP2 DUP2 LT PUSH2 0x4F3 JUMPI POP SWAP2 PUSH1 0x1 SWAP4 SWAP2 DUP6 PUSH1 0x6 SWAP9 SWAP8 SWAP7 SWAP5 LT PUSH2 0x4DA JUMPI JUMPDEST POP POP POP DUP2 SHL ADD SWAP1 SSTORE PUSH2 0x3B5 JUMP JUMPDEST ADD MLOAD PUSH1 0x0 NOT PUSH1 0xF8 DUP5 PUSH1 0x3 SHL AND SHR NOT AND SWAP1 SSTORE DUP14 DUP1 DUP1 PUSH2 0x4CD JUMP JUMPDEST SWAP3 SWAP4 PUSH1 0x20 PUSH1 0x1 DUP2 SWAP3 DUP8 DUP7 ADD MLOAD DUP2 SSTORE ADD SWAP6 ADD SWAP4 ADD PUSH2 0x4B3 JUMP JUMPDEST DUP3 DUP14 MSTORE PUSH1 0x20 DUP14 KECCAK256 PUSH1 0x1F DUP4 ADD PUSH1 0x5 SHR DUP2 ADD SWAP2 PUSH1 0x20 DUP5 LT PUSH2 0x54B JUMPI JUMPDEST PUSH1 0x1F ADD PUSH1 0x5 SHR ADD SWAP1 DUP14 SWAP1 JUMPDEST DUP3 DUP2 LT PUSH2 0x53E JUMPI POP POP PUSH2 0x387 JUMP JUMPDEST PUSH1 0x1 SWAP2 DUP2 SSTORE ADD DUP14 SWAP1 PUSH2 0x530 JUMP JUMPDEST SWAP1 SWAP2 POP DUP2 SWAP1 PUSH2 0x525 JUMP JUMPDEST PUSH4 0x4E487B71 PUSH1 0xE0 SHL DUP13 MSTORE PUSH1 0x41 PUSH1 0x4 MSTORE PUSH1 0x24 DUP13 REVERT JUMPDEST PUSH4 0x4E487B71 PUSH1 0xE0 SHL PUSH1 0x0 MSTORE PUSH1 0x41 PUSH1 0x4 MSTORE PUSH1 0x24 PUSH1 0x0 REVERT JUMPDEST PUSH4 0x4E487B71 PUSH1 0xE0 SHL PUSH1 0x0 MSTORE PUSH1 0x11 PUSH1 0x4 MSTORE PUSH1 0x24 PUSH1 0x0 REVERT JUMPDEST PUSH1 0x40 MLOAD PUSH3 0x461BCD PUSH1 0xE5 SHL DUP2 MSTORE PUSH1 0x20 PUSH1 0x4 DUP3 ADD MSTORE PUSH1 0xE PUSH1 0x24 DUP3 ADD MSTORE PUSH14 0x125B9D985B1A5908185B5BDD5B9D PUSH1 0x92 SHL PUSH1 0x44 DUP3 ADD MSTORE PUSH1 0x64 SWAP1 REVERT JUMPDEST PUSH1 0x40 MLOAD PUSH3 0x461BCD PUSH1 0xE5 SHL DUP2 MSTORE PUSH1 0x20 PUSH1 0x4 DUP3 ADD MSTORE PUSH1 0x10 PUSH1 0x24 DUP3 ADD MSTORE PUSH16 0x125B9D985B1A59081B595C98DA185B9D PUSH1 0x82 SHL PUSH1 0x44 DUP3 ADD MSTORE PUSH1 0x64 SWAP1 REVERT JUMPDEST CALLVALUE PUSH2 0x151 JUMPI PUSH1 0x20 CALLDATASIZE PUSH1 0x3 NOT ADD SLT PUSH2 0x151 JUMPI PUSH1 0x4 CALLDATALOAD PUSH2 0x61F PUSH2 0xA8A JUMP JUMPDEST DUP1 PUSH1 0x0 MSTORE PUSH1 0x2 PUSH1 0x20 MSTORE PUSH1 0x40 PUSH1 0x0 KECCAK256 PUSH2 0x644 PUSH1 0x1 DUP1 PUSH1 0xA0 SHL SUB PUSH1 0x2 DUP4 ADD SLOAD AND CALLER EQ PUSH2 0xA0B JUMP JUMPDEST PUSH1 0x6 DUP2 ADD SWAP1 PUSH1 0xFF DUP3 SLOAD AND SWAP2 PUSH1 0x3 DUP4 LT ISZERO PUSH2 0x13B JUMPI PUSH2 0x665 PUSH2 0x6AC SWAP4 ISZERO PUSH2 0xA4A JUMP JUMPDEST DUP1 SLOAD PUSH1 0xFF NOT AND PUSH1 0x2 OR SWAP1 SSTORE PUSH1 0x1 DUP2 ADD SLOAD PUSH1 0x3 SWAP2 SWAP1 SWAP2 ADD SLOAD SWAP1 PUSH1 0x1 PUSH1 0x1 PUSH1 0xA0 SHL SUB AND PUSH32 0x0 PUSH2 0xAAC JUMP JUMPDEST PUSH32 0xF5EC7914F551B0E22D281FAF431BE56BD547434A136FA460D18A3B21664F46FB PUSH1 0x0 DUP1 LOG2 PUSH1 0x1 PUSH1 0x0 SSTORE STOP JUMPDEST CALLVALUE PUSH2 0x151 JUMPI PUSH1 0x20 CALLDATASIZE PUSH1 0x3 NOT ADD SLT PUSH2 0x151 JUMPI PUSH1 0x4 CALLDATALOAD PUSH1 0x0 MSTORE PUSH1 0x2 PUSH1 0x20 MSTORE PUSH1 0x40 PUSH1 0x0 KECCAK256 DUP1 SLOAD PUSH2 0x746 PUSH1 0x1 DUP1 PUSH1 0xA0 SHL SUB PUSH1 0x1 DUP5 ADD SLOAD AND SWAP3 PUSH1 0x1 DUP1 PUSH1 0xA0 SHL SUB PUSH1 0x2 DUP3 ADD SLOAD AND SWAP1 PUSH1 0x3 DUP2 ADD SLOAD PUSH1 0x4 DUP3 ADD SLOAD SWAP1 PUSH1 0xFF PUSH1 0x6 PUSH2 0x735 PUSH1 0x5 DUP7 ADD PUSH2 0x967 JUMP JUMPDEST SWAP5 ADD SLOAD AND SWAP4 PUSH1 0x40 MLOAD SWAP8 DUP9 SWAP8 DUP9 PUSH2 0x86D JUMP JUMPDEST SUB SWAP1 RETURN JUMPDEST CALLVALUE PUSH2 0x151 JUMPI PUSH1 0x20 CALLDATASIZE PUSH1 0x3 NOT ADD SLT PUSH2 0x151 JUMPI PUSH1 0x1 PUSH1 0x1 PUSH1 0xA0 SHL SUB PUSH2 0x76B PUSH2 0x8F5 JUMP JUMPDEST AND PUSH1 0x0 MSTORE PUSH1 0x3 PUSH1 0x20 MSTORE PUSH1 0x40 PUSH1 0x0 KECCAK256 PUSH1 0x40 MLOAD DUP1 PUSH1 0x20 DUP4 SLOAD SWAP2 DUP3 DUP2 MSTORE ADD SWAP1 DUP2 SWAP4 PUSH1 0x0 MSTORE PUSH1 0x20 PUSH1 0x0 KECCAK256 SWAP1 PUSH1 0x0 JUMPDEST DUP2 DUP2 LT PUSH2 0x7EE JUMPI POP POP POP DUP2 PUSH2 0x7AB SWAP2 SUB DUP3 PUSH2 0x945 JUMP JUMPDEST PUSH1 0x40 MLOAD SWAP2 DUP3 SWAP2 PUSH1 0x20 DUP4 ADD SWAP1 PUSH1 0x20 DUP5 MSTORE MLOAD DUP1 SWAP2 MSTORE PUSH1 0x40 DUP4 ADD SWAP2 SWAP1 PUSH1 0x0 JUMPDEST DUP2 DUP2 LT PUSH2 0x7D5 JUMPI POP POP POP SUB SWAP1 RETURN JUMPDEST DUP3 MLOAD DUP5 MSTORE DUP6 SWAP5 POP PUSH1 0x20 SWAP4 DUP5 ADD SWAP4 SWAP1 SWAP3 ADD SWAP2 PUSH1 0x1 ADD PUSH2 0x7C7 JUMP JUMPDEST DUP3 SLOAD DUP5 MSTORE PUSH1 0x20 SWAP1 SWAP4 ADD SWAP3 PUSH1 0x1 SWAP3 DUP4 ADD SWAP3 ADD PUSH2 0x795 JUMP JUMPDEST CALLVALUE PUSH2 0x151 JUMPI PUSH1 0x20 CALLDATASIZE PUSH1 0x3 NOT ADD SLT PUSH2 0x151 JUMPI PUSH1 0x4 CALLDATALOAD PUSH1 0x0 MSTORE PUSH1 0x2 PUSH1 0x20 MSTORE PUSH1 0x40 PUSH1 0x0 KECCAK256 DUP1 SLOAD PUSH2 0x746 PUSH1 0x1 DUP1 PUSH1 0xA0 SHL SUB PUSH1 0x1 DUP5 ADD SLOAD AND SWAP3 PUSH1 0x1 DUP1 PUSH1 0xA0 SHL SUB PUSH1 0x2 DUP3 ADD SLOAD AND PUSH1 0x3 DUP3 ADD SLOAD PUSH1 0x4 DUP4 ADD SLOAD SWAP1 PUSH2 0x864 PUSH1 0x5 PUSH1 0xFF PUSH1 0x6 DUP8 ADD SLOAD AND SWAP6 ADD PUSH2 0x967 JUMP JUMPDEST SWAP3 PUSH1 0x40 MLOAD SWAP8 DUP9 SWAP8 DUP9 JUMPDEST SWAP1 DUP2 MSTORE PUSH1 0x1 PUSH1 0x1 PUSH1 0xA0 SHL SUB SWAP2 DUP3 AND PUSH1 0x20 DUP3 ADD MSTORE SWAP2 AND PUSH1 0x40 DUP3 ADD MSTORE PUSH1 0x60 DUP2 ADD SWAP2 SWAP1 SWAP2 MSTORE PUSH1 0x80 DUP2 ADD SWAP2 SWAP1 SWAP2 MSTORE PUSH1 0xE0 PUSH1 0xA0 DUP3 ADD DUP2 SWAP1 MSTORE DUP3 MLOAD SWAP1 DUP3 ADD DUP2 SWAP1 MSTORE SWAP1 SWAP4 SWAP3 SWAP2 PUSH1 0x0 JUMPDEST DUP3 DUP2 LT PUSH2 0x8DE JUMPI POP POP DUP1 PUSH1 0x0 PUSH2 0x100 DUP1 SWAP4 DUP8 ADD ADD MSTORE PUSH1 0x1F DUP1 NOT SWAP2 ADD AND DUP5 ADD ADD SWAP3 PUSH1 0x3 DUP3 LT ISZERO PUSH2 0x13B JUMPI PUSH1 0xC0 ADD MSTORE JUMP JUMPDEST DUP1 PUSH1 0x20 DUP1 SWAP3 DUP5 ADD ADD MLOAD PUSH2 0x100 DUP3 DUP10 ADD ADD MSTORE ADD PUSH2 0x8AF JUMP JUMPDEST PUSH1 0x4 CALLDATALOAD SWAP1 PUSH1 0x1 PUSH1 0x1 PUSH1 0xA0 SHL SUB DUP3 AND DUP3 SUB PUSH2 0x151 JUMPI JUMP JUMPDEST SWAP1 PUSH1 0x1 DUP3 DUP2 SHR SWAP3 AND DUP1 ISZERO PUSH2 0x93B JUMPI JUMPDEST PUSH1 0x20 DUP4 LT EQ PUSH2 0x925 JUMPI JUMP JUMPDEST PUSH4 0x4E487B71 PUSH1 0xE0 SHL PUSH1 0x0 MSTORE PUSH1 0x22 PUSH1 0x4 MSTORE PUSH1 0x24 PUSH1 0x0 REVERT JUMPDEST SWAP2 PUSH1 0x7F AND SWAP2 PUSH2 0x91A JUMP JUMPDEST SWAP1 PUSH1 0x1F DUP1 NOT SWAP2 ADD AND DUP2 ADD SWAP1 DUP2 LT PUSH8 0xFFFFFFFFFFFFFFFF DUP3 GT OR PUSH2 0x569 JUMPI PUSH1 0x40 MSTORE JUMP JUMPDEST SWAP1 PUSH1 0x40 MLOAD SWAP2 DUP3 PUSH1 0x0 DUP3 SLOAD SWAP3 PUSH2 0x97B DUP5 PUSH2 0x90B JUMP JUMPDEST DUP1 DUP5 MSTORE SWAP4 PUSH1 0x1 DUP2 AND SWAP1 DUP2 ISZERO PUSH2 0x9E9 JUMPI POP PUSH1 0x1 EQ PUSH2 0x9A2 JUMPI JUMPDEST POP PUSH2 0x9A0 SWAP3 POP SUB DUP4 PUSH2 0x945 JUMP JUMPDEST JUMP JUMPDEST SWAP1 POP PUSH1 0x0 SWAP3 SWAP2 SWAP3 MSTORE PUSH1 0x20 PUSH1 0x0 KECCAK256 SWAP1 PUSH1 0x0 SWAP2 JUMPDEST DUP2 DUP4 LT PUSH2 0x9CD JUMPI POP POP SWAP1 PUSH1 0x20 PUSH2 0x9A0 SWAP3 DUP3 ADD ADD CODESIZE PUSH2 0x993 JUMP JUMPDEST PUSH1 0x20 SWAP2 SWAP4 POP DUP1 PUSH1 0x1 SWAP2 SLOAD DUP4 DUP6 DUP10 ADD ADD MSTORE ADD SWAP2 ADD SWAP1 SWAP2 DUP5 SWAP3 PUSH2 0x9B4 JUMP JUMPDEST SWAP1 POP PUSH1 0x20 SWAP3 POP PUSH2 0x9A0 SWAP5 SWAP2 POP PUSH1 0xFF NOT AND DUP3 DUP5 ADD MSTORE ISZERO ISZERO PUSH1 0x5 SHL DUP3 ADD ADD CODESIZE PUSH2 0x993 JUMP JUMPDEST ISZERO PUSH2 0xA12 JUMPI JUMP JUMPDEST PUSH1 0x40 MLOAD PUSH3 0x461BCD PUSH1 0xE5 SHL DUP2 MSTORE PUSH1 0x20 PUSH1 0x4 DUP3 ADD MSTORE PUSH1 0x10 PUSH1 0x24 DUP3 ADD MSTORE PUSH16 0x139BDD081E5BDD5C881C185E5B595B9D PUSH1 0x82 SHL PUSH1 0x44 DUP3 ADD MSTORE PUSH1 0x64 SWAP1 REVERT JUMPDEST ISZERO PUSH2 0xA51 JUMPI JUMP JUMPDEST PUSH1 0x40 MLOAD PUSH3 0x461BCD PUSH1 0xE5 SHL DUP2 MSTORE PUSH1 0x20 PUSH1 0x4 DUP3 ADD MSTORE PUSH1 0x11 PUSH1 0x24 DUP3 ADD MSTORE PUSH17 0x105B1C9958591E481C1C9BD8D95CDCD959 PUSH1 0x7A SHL PUSH1 0x44 DUP3 ADD MSTORE PUSH1 0x64 SWAP1 REVERT JUMPDEST PUSH1 0x2 PUSH1 0x0 SLOAD EQ PUSH2 0xA9B JUMPI PUSH1 0x2 PUSH1 0x0 SSTORE JUMP JUMPDEST PUSH4 0x3EE5AEB5 PUSH1 0xE0 SHL PUSH1 0x0 MSTORE PUSH1 0x4 PUSH1 0x0 REVERT JUMPDEST PUSH1 0x40 MLOAD PUSH4 0xA9059CBB PUSH1 0xE0 SHL PUSH1 0x20 DUP3 ADD MSTORE PUSH1 0x1 PUSH1 0x1 PUSH1 0xA0 SHL SUB SWAP1 SWAP3 AND PUSH1 0x24 DUP4 ADD MSTORE PUSH1 0x44 DUP1 DUP4 ADD SWAP4 SWAP1 SWAP4 MSTORE SWAP2 DUP2 MSTORE PUSH2 0x9A0 SWAP2 PUSH2 0xAE7 PUSH1 0x64 DUP4 PUSH2 0x945 JUMP JUMPDEST SWAP1 PUSH1 0x0 PUSH1 0x20 SWAP2 DUP3 DUP2 MLOAD SWAP2 ADD DUP3 DUP6 GAS CALL ISZERO PUSH2 0xB42 JUMPI PUSH1 0x0 MLOAD RETURNDATASIZE PUSH2 0xB39 JUMPI POP PUSH1 0x1 PUSH1 0x1 PUSH1 0xA0 SHL SUB DUP2 AND EXTCODESIZE ISZERO JUMPDEST PUSH2 0xB18 JUMPI POP JUMP JUMPDEST PUSH4 0x5274AFE7 PUSH1 0xE0 SHL PUSH1 0x0 SWAP1 DUP2 MSTORE PUSH1 0x1 PUSH1 0x1 PUSH1 0xA0 SHL SUB SWAP2 SWAP1 SWAP2 AND PUSH1 0x4 MSTORE PUSH1 0x24 SWAP1 REVERT JUMPDEST PUSH1 0x1 EQ ISZERO PUSH2 0xB11 JUMP JUMPDEST PUSH1 0x40 MLOAD RETURNDATASIZE PUSH1 0x0 DUP3 RETURNDATACOPY RETURNDATASIZE SWAP1 REVERT INVALID LOG2 PUSH5 0x6970667358 0x22 SLT KECCAK256 0xD2 0x4E DUP8 PUSH10 0xFFBD2D6431AB9D550C36 0x4E LOG4 0xE5 PUSH8 0x524B533D089AB6D9 0xAC 0xE6 0xB4 BLOBHASH DUP5 PUSH31 0x64736F6C634300081C00330000000000000000000000000000000000000000 "
        },
        "methodIdentifiers": {
          "acceptPayment(uint256)": "bf846e04",
          "getMerchantPaymentIds(address)": "7508cf12",
          "getPayment(uint256)": "3280a836",
          "payMerchant(address,uint256,string)": "a647d1d3",
          "payments(uint256)": "87d81789",
          "rejectPayment(uint256)": "8d920b02",
          "stableToken()": "a9d75b2b"
        }
      }
    }
  }
}